:020000040000fa
:080000000001040000000000f3
:020000040000fa
:100200006f5b22008079220000018800000000005e
:10021000050007000c0007004e510200000000001e
:100220000040da000000fe004440a90000a42000c5
:100230000000e0000300320000002000a001880060
:100240004440a80000000600608b2f000100200041
:100250001600370062004000e080480091018800ed
:100260009001ba0062004000e080480091018800df
:100270009002ba0062004000e08048000002eb00fb
:100280006028e10005003a008301e900070033001f
:10029000038009000059eb00040037006128e100e9
:1002a000010032000082eb00050007009101880088
:1002b0001001ba000200e000e6ff3a00000005006d
:1002c000910188008002780062004000e0804800d0
:1002d0003559ba008301e900080032002559ba00f7
:1002e0008301e900050032000400e000f4ff320061
:1002f00015d9ba008301e900f1ff3a0000000600b9
:10030000462e040000000000682f040000000000da
:100310004c30040000000000d8350400000000004c
:10032000724f040000000000ec0204000000000016
:100330002803040000000000889fbe0080047800ad
:10034000624c80000200e0000200320002007800ef
:100350000c003700e098200003003700918f540014
:10036000240036000180e800900078000100e000e1
:10037000faff3a000f003700918f54001d0036003d
:100380000180e800900078000100e000faff3a00e8
:1003900012017800e098200003003700918f54008c
:1003a000140036000180e80090007800828f500031
:1003b000faff3a00584c8000890f540001003100c8
:1003c0000904780008007800b60007000000e0008b
:1003d00004003a00890f5400050032000804d100df
:1003e000f5ff37000818780041000700d4ff3700f8
:1003f0000000eb004f04be0000000600881f7800dc
:10040000630440000800a100800f54002300360060
:10041000e30f540001003e0048002000080078006f
:10042000c5ff0700800078000000e0001b003200dc
:10043000100178009201780064805100880f50000c
:100440000300310012009000800878000700370098
:100450000800410080087800920190001300980085
:100460001100780012081400080978009100780043
:100470000100e00005003200110090000000e000e3
:10048000020032000180e800010037000000eb00ac
:10049000604c88000280e800010037000000eb009b
:1004a0004f047800000006000004780006003700c2
:1004b00082004100904c8000e10078000200e800da
:1004c000804c880001000100824c8000a04c80001c
:1004d000800f5100f6ff3900e08d2000904c88001d
:1004e00020022000a04c88000800780003090700c3
:1004f0000000e000300032008080e90091027800c6
:10050000e38f52002c0036000508a3002a003a00b1
:10051000724c80000200e00002003200828f500026
:100520000400310002087800714c88001600370082
:1005300003017800920190000300e0000200320005
:10054000818f5100faff3900120278000400410047
:10055000808f500018003900810f500003003a00ce
:100560000509420082007800070037000300e00020
:100570000300320005804000808f51000e003900da
:100580009300980011019800110190000200e00012
:100590000900320011804000820f500006003a002e
:1005a0008c29ef00110090001101780090084100a3
:1005b0001000900090009800000006008000780075
:1005c0001106b100030035009101b10001003c00ab
:1005d0000050a10000000600881f78000204780087
:1005e00037000700080040004f04780000000600b4
:1005f0000000fa00881f7800000478003fb99700d7
:10060000ea81570080007800c02e200033000700e8
:10061000800078000000e000020035000040eb00a0
:1006200000f47800010078004f0478000080fa00a0
:100630000000060080007800010037000000e8009c
:100640001004e000fdff3a00010050000000060029
:10065000900178000200e00002003a000308e9007f
:10066000050037008080eb001304e0000200320038
:100670000308e8009300fb0001007800000006007a
:100680000200fa00f0bf9f003fb99700ea815700cf
:100690008f80e90080322000c90007000080fa0046
:1006a000000006000000e000030034009b08070083
:1006b000e10f400001003a000000eb0000000600de
:1006c0008001780002003700b15978000201e9008a
:1006d0000200e000fcff3a00000006006200fa00a1
:1006e000889fbe008a9fbe000004be0002057800fd
:1006f0008300780060f92f000f00400078010700a8
:1007000088979f0099979f000000eb00a09f9f0093
:100710009a4578000b80fb000000ea00cf04de0061
:1007200050c2b30080cf55000200320009047800a7
:10073000010037000904e9000800e0000b00340064
:100740001f909700080178008a0078008f91970029
:100750000300010090979f000000e000930032002a
:100760002f98970000004400a09f9f0009054500b6
:1007700050c2b30080cf5500040032000b04e000eb
:10078000e3ff3a002f989700890037000000eb0044
:10079000809f9f00f0979f00e0979f00d0979f0059
:1007a000c0979f00b0979f00c09f9f00090037002f
:1007b000609720000080500000004000a1962000bb
:1007c000e08078004f98970001007000c09f9f0064
:1007d0000a05e8001a4478008800fb0060972000b2
:1007e00044010700800078000000e000f0ff3a00bc
:1007f000a0c2b300804f54000e003a00bf8897009b
:100800000180e900b08f9f0010007800b09f9f002a
:100810000000e00005003d000000ea00b09f9f00de
:100820004f9897000020a000c09f9f000a05e80095
:1008300010003700b19f9f0009003700bf98970054
:10084000f0ff2700808f5000040032006a08b900d2
:100850000000410003004000b09f9f000a05e8002f
:100860001a01fb0003fd2f0003004100e90f5000b7
:10087000f2ff3600e0c2b3009a4f100004003200cd
:100880000080eb00909f9f008a0478001c003700d6
:100890008a04e800a0c2b300994f100007003a0094
:1008a000bf8897000180e900b08f9f00100078009a
:1008b000909f9f008a84e800110037000000eb0041
:1008c000909f9f00090037009f989700f0ff270036
:1008d000808f5000040032006a08b9000000410017
:1008e00003004000909f9f008904e8001901fb006d
:1008f00003fd2f0003004100e90f5000f2ff360016
:10090000194478008800fb0020392200f900070014
:100910000000e00002003a000044780001003700c7
:100920008904e800a87f9f0080c6b300804f540070
:1009300004003a00994f14000a003a006640500043
:1009400006003700c0c6b300804f540005003a00cf
:10095000994f140003003a0065404000a07f9f00bb
:100960008904e8000905e800cbfb2f008f854500ce
:100970001901fb0060f92f000f0040000084e8001f
:100980008b0178008000780008007800e200070002
:100990000000e00005003a008b00780008007800b5
:1009a000210207000000e00059ff3d000080eb003d
:1009b0004f05be004f04be000080fa000000060094
:1009c0001200fa00889fbe008a9fbe008c1f78002c
:1009d00002047800a0b79f00b1b79f0083007800a1
:1009e00078805700be0007000000eb00e0b79f00d2
:1009f000d8b79f0000067800dfb49700194578004b
:100a00000a80fb000000ea00cf05de000a00fb00c0
:100a1000cf0207000000e0001a0032006fb097001c
:100a20000000e800e0b79f003fb0970012002000f0
:100a30008000eb00afb197000300010000047800d4
:100a4000c3020700000178000000e000f3ff3a0055
:100a50006fb09700e10f4400070032000000e9008a
:100a6000e0b79f003fb0970088007800afb19700d3
:100a700003000100230037000000e900e0b79f00f9
:100a80002000370050c2b300804f550002003200f2
:100a90000b047800190037000b04e9001700370039
:100aa0006fb097000000e800e0b79f003fb09700ec
:100ab000120020008000eb00afb19700030001009e
:100ac000800078001900fb00808f50000a0032007f
:100ad000e18f40007c0032006fb097000000e90019
:100ae000e0b79f003fb097000001eb00afb1970067
:100af00003000100740037008904e8000804e900dd
:100b0000e7ff3b005fb0970080804500d1b79f00b2
:100b100050c2b300804f5500030032000a04e000c9
:100b2000b5ff3a0068003700a2c2b3000040eb00f6
:100b3000914f110003003a000100e800d0b79f0078
:100b400002407800a0f79f000000eb0080bf9f00ec
:100b50000b0037008fb89700f0ff2700808f500000
:100b6000040032006a08b9000000410003004000a0
:100b700080bf9f005fb097000000e800d0b79f00e3
:100b8000dfb49700194478000801fb0003fd2f0033
:100b900003004100e90f5000eeff360082007800ac
:100ba000e0372200530007000000e00002003a0096
:100bb00000447800020037000900e800d0b79f0029
:100bc000b8f79f0080c6b300804f540005003a007c
:100bd000dfb09700914f14000c003a0066405000bf
:100be00007003700c0c6b300804f540007003a002a
:100bf000dfb09700914f140004003a0065404000b8
:100c0000b0f79f000100e800d0b79f005fb09700e9
:100c10009000fb0050382200360007000000e00082
:100c200019003a006fb097000000e800e0b79f009d
:100c30003fb09700120020008000eb00afb197009a
:100c40000300010000047800410207000001780061
:100c50000000e000f3ff3a006fb09700e10f44009e
:100c6000070032000000e900e0b79f003fb09700a6
:100c700088007800afb19700030001000200370040
:100c80000000e900e0b79f007c80570038020700b1
:100c90000000e00003003c000c00e000090032000e
:100ca000090037004ff097000004e0000100320017
:100cb0000c06e8005fb097000000e800d0b79f0086
:100cc0004dff3700000678000c0078004f067800d2
:100cd0004f05be004f04be000080fa000000060071
:100ce0000200fa00f1bf9f00010878000080fa00be
:100cf00000000600040037000204e00001003a0092
:100d0000000005000000e80010417800814f51000c
:100d1000f9ff3a0000000600889fbe008a1f780095
:100d2000000478000102780082447800030578000e
:100d3000e0c6b300804f5100d300320015003c00e4
:100d40006b405000804f5100240032000a003c00ec
:100d500070405000804f510010013200654040004b
:100d6000804f51007400320050c2b300804f5100d8
:100d700021013a001d01370040c6b300804f5100e9
:100d80001b00320065404000804f51001a013a00bc
:100d90001700370030c7b300804f5100ff0032000a
:100da00007003c0064405000804f51006200320058
:100db0000040e800804f51000f013a00e800370082
:100dc00050c7b300804f51005b00320063404000c9
:100dd000804f510008013a00570037009180e90028
:100de000010a7800780090009171780008013700be
:100df000a8609000c0c6b30080cf50000a003a003f
:100e00009400780064805000000a78001000be0052
:100e10004f89de00cf91de000002be0002037800a1
:100e2000820378001300370010c7b30080cf500052
:100e300003003200a0c6b30080cf500006003a0085
:100e40009400780068805000000a78003002be00ec
:100e50002003be00070037001480e900000a780074
:100e60001000780000027800cfa2de0005037800b1
:100e700086037800049cbe000694be00a860900023
:100e800080c6b30080cf50000e00320020c6b300f1
:100e900080cf500005003a000400fb00cf80de0048
:100ea00001017800820178000a00370040c7b300d2
:100eb00080cf5000030032006640400080cf5000d9
:100ec00006003a0004007800cf80de0001017800bf
:100ed00082017800009cbe000294be003800be0073
:100ee0002801be00e00f5000e08f5800e00f5900cd
:100ef000e08f590003003d0078009000d1c2b3009c
:100f00000a003700081090000018a3000300320008
:100f100078009000b1c2b300040037000008a300bd
:100f2000540032007800900001c2b30001757800cf
:100f30000000e8004e003700a8609000c0c6b30073
:100f400080cf500007003a00940078006480500081
:100f5000000a78001002be000003eb008603780050
:100f60001300370010c7b30080cf500003003200d9
:100f7000a0c6b30080cf500006003a00940078006d
:100f800068805000000a78003002be002003be00d6
:100f9000070037001480e900000a7800100078008c
:100fa0000002780005002000060020000700200055
:100fb000049cbe000694be00a860900080c6b300ea
:100fc00080cf50000e00320020c6b30080cf50000a
:100fd00005003a000480fb00010020000200200010
:100fe000030020000a00370040c7b30080cf500044
:100ff000030032006640400080cf500006003a00f7
:1010000004007800010020000200200003002000fe
:10101000009cbe000294be00081090000038a3009f
:10102000140032003800be002801be00e00f50005e
:10103000e08f5800e00f5900e08f59000d0032009a
:1010400080c7b30080cf54000300320080c5b300d6
:1010500080cf540007003a007800900001c3b3002d
:10106000017578008000e80009f578000080e8004c
:10107000700498007800900000004500600498001b
:101080008940780042003700a8609000c0c6b300d5
:1010900080cf5000250032000a003c006440500020
:1010a00080cf50002800320000c0e80080cf500000
:1010b000140032006840500080cf500022003a00f7
:1010c0000a00370040c7b30080cf50001e00320036
:1010d0006640400080cf50001b0032006940500045
:1010e00080cf500018003a00060037001480e90055
:1010f000000a780010007800485c900008487800ea
:10110000450037001480e900000a780010027800da
:1011100068089000cf80de0001017800820178002d
:10112000009abe000292be003b0037001480e90026
:10113000000a78001001780068089000cf80de0077
:101140000089be00340037001480e900000a7800ee
:1011500010007800680c9000080878002e00370016
:101160001180e9008008780010007800cf80de0050
:101170000101780082017800009cbe000294be004c
:1011800078009000000045006004980081c7b3001b
:10119000080078008d0107001f0037001480e90067
:1011a000000a780010007800600498005809900048
:1011b0000200e00002003d001efd070009003700ac
:1011c0008000eb0038020700800078000000e0009b
:1011d00003003200680090000080500001003700da
:1011e00058089000100c98000b0037007800900011
:1011f00002757800060037007800900080004500f6
:101200000904e00001003a0059c2b300894878009f
:101210000000e800700498000000eb004f05780023
:101220004f04be00000006000400fa00889fbe00c4
:101230008a9fbe008c1f78000004780001067800a9
:1012400070089000f800900001005000880890009d
:10125000010050009808900001005000a80890007c
:1012600001005000b808900001005000c80890002c
:10127000810550000002220090bf9f000003230060
:10128000a0bf9f00081090000028a30018003a009b
:101290000b00e000160034008b047800090578008c
:1012a000e28f5400020036002a00200002003700be
:1012b0000900e0000b00340058009000c8019000c5
:1012c0000a017800ee8057000300010050049800e6
:1012d0000000e00096003200680890000000450021
:1012e000600c98008a8454004240a900ebff3c0047
:1012f000780190000200e0000b00340058009000dc
:10130000c80190008c007800030001005004980090
:101310000000e0008600320068089000f8009000ad
:1013200001004000600c9800880c90000900e0006b
:101330001500340009057800e28f540002003600e1
:101340002a002000020037000900e0000b003400f2
:1013500058009000c80190000a017800ec80570006
:1013600003000100500498000000e000700032000b
:101370006808900000004500600c98008a845400c2
:101380004240a900ebff3c00180990000200e00079
:101390000b003400e800900058009000c801900055
:1013a00003000100500498000000e00060003200db
:1013b000680890009808900001004000600c9800b8
:1013c000a80c90000900e000150034000905780021
:1013d000e28f5400020036002a002000020037008d
:1013e0000900e0000b00340058009000c801900094
:1013f0000a017800ec8057000300010050049800b7
:101400000000e0004a00320068089000000045003b
:10141000600c98008a8454004240a900ebff3c0015
:10142000380990000200e0000d003400e800900050
:10143000180890008080400058009000c80190007b
:1014400003000100500498000000e0003800320062
:1014500068089000b808900001004000600c9800f7
:10146000c80c90000900e000150034000905780060
:10147000e28f5400020036002a00200002003700ec
:101480000900e0000b00340058009000c8019000f3
:101490000a017800ec805700030001005004980016
:1014a0000000e000220032006808900000004500c3
:1014b000600c98008a8454004240a900ebff3c0075
:1014c000081090000028a3001b0032000b00e00071
:1014d000190034008b04780009057800e28f54006d
:1014e000020036002a002000020037000900e00058
:1014f0000b00340058009000c80190000a017800e9
:10150000ee80570003000100500498000000e00046
:10151000070032006808900000004500600c980049
:101520008a8454004240a90003003400eaff3700d7
:101530000080eb00010037000000eb004f06780050
:101540004f05be004f04be000080fa0000000600f8
:101550006900e100040035006d00e1000300340083
:101560000002b1000100320000000500100005007b
:10157000881f7800000478000040eb0000549800b9
:10158000380090009040780090c6b30080cf5000a3
:101590002a00320013003c007140500080cf500000
:1015a0002600320005003c0050c2b30080cf50003e
:1015b0006400320030c5b3001b00370030c6b300f2
:1015c00080cf50001b0032000040e80080cf500068
:1015d0001a0032006940500080cf50006e003a007f
:1015e0007300370000c7b30080cf500007003c00f5
:1015f0000040e90080cf500010003d000040e900ad
:1016000080cf500064003a000f00370050c7b3008d
:1016100080cf5000090032006340400080cf50006e
:10162000060032006540500080cf50004300320079
:10163000590037008000eb005e003700080078009a
:10164000240107005f003700684890000004e000b4
:101650005b003a00f8489000c0c6b30080cf50004d
:10166000270032000a003c006440500080cf500048
:101670002b00320000c0e80080cf5000150032007f
:101680006840500080cf500025003a000a00370023
:1016900040c7b30080cf50002100320066404000b8
:1016a00080cf50001e0032006940500080cf5000b3
:1016b0001b003a0007003700280090000080e90076
:1016c0002004980010007800084c9000084878002a
:1016d0003b003700280090000080e90020049800bb
:1016e0001002780048009000cf80de0001017800f1
:1016f00082017800009abe000292be0030003700de
:10170000280090000080e900200498001001780073
:1017100048009000cf80de000089be00280037001e
:10172000280090000080e900200498001000780054
:1017300048049000080878002100370011002000bc
:101740001c003700480090000000e80040049800aa
:101750001800900098017800120020008000eb0033
:10176000030001008000780050022000808f5000ac
:101770001300320048009000e18f40000800320062
:101780000000e900400498001800900098017800db
:101790000001eb00030001000000eb00090037002e
:1017a0000000e900400498000100780005003700bf
:1017b0008080eb000800780020020700010037005d
:1017c000100020004f04780000000600ef02b00077
:1017d000889fbe008a9fbe008c9fbe008e1f78002f
:1017e0008006780000012000b0b79f00929520008d
:1017f000c2b79f0080c5b30080cf50000e003200fa
:1018000083002000b3b79f0084942000c4b79f00da
:101810007740400080cf50000700320000012000d8
:10182000b0b79f0080c7b30080cf500002003200e5
:10183000a2002000b2b79f003d04be002d05be00ef
:1018400040c6b30080cf5000030032006540400026
:1018500080cf50000b003a00e00f5400e08f5c0096
:10186000e00f5d00e08f5d0006003d006000b80005
:101870006011b80008045000898458000a05590016
:101880008b855900e00f5400e08f5c00e00f5d0095
:10189000e08f5d0004003a005d0890008e0120009a
:1018a0000000e0000c003200bfb197000302780096
:1018b000cfa2de0005037800860378000800be0092
:1018c0000a01be002d0707004fb297006440780060
:1018d000d0df9f007e0120003fb09700000278001b
:1018e000cfa2de0005037800860378000800be0062
:1018f0000a01be001a07070023003700bfb0970097
:1019000001047800cfc4de00090578008a0578005c
:101910000802be000a03be007fa897008fb09700a0
:101920001fb19700afb1970018070700d0b79f000d
:10193000e1b79f00f2b79f0083bf9f000e07e90049
:1019400062fc2f000f0141000e0641000802be009c
:101950000a03be005fb09700efb097007fb1970019
:101960008fb99700850707007faa970000005200f3
:10197000cfb09700614e78005fb09700efb097004e
:101980007fb197008fb99700809ebe008296be00ff
:101990003d00be002d01be00f0af9f0081b79f004b
:1019a00092b79f00a3b79f00e00f5000e08f580050
:1019b000e00f5900e08f5900020034000e00e000f3
:1019c000ceff3c00bfb09700e88f500010003a00f7
:1019d0000d1090000038a3000d003200f70f5700e3
:1019e00006003e0062fc2f000f0141008e00410006
:1019f00000c3b300914f1000050032000e07e9004c
:101a000000c3b30063fc2f008f81410080717f0011
:101a100078011700920e98006d00900063fc2f0073
:101a20008f8141008e80410025fb07001d09900039
:101a30005d089000800f510006003d00020050003c
:101a4000800e98000d1090000040a10080169800b4
:101a50000f0037000000e0000d003d000d10900069
:101a600074006000f00f500009003a007d089000fb
:101a7000fd009000010050008d0890000100500012
:101a8000020050004240a90001003400800e98007e
:101a90004f0778004f06be004f05be004f04be0042
:101aa000ef02b100000006000600370090cf1000e2
:101ab00002003a0000017800040037000000e8004e
:101ac0000201e9000200e000f8ff3a00020078009d
:101ad000000006002f02b000889fbe008a9fbe0053
:101ae0008c9fbe008e1f78008004780060009000fc
:101af0000000e00001003c00f0ff27000000e900ca
:101b0000d0049800c90090000c0033000100e800e8
:101b1000c00498001900900099017800120020007c
:101b20008000eb000300010000057800b0022000f7
:101b3000800f550006003a000b0037000100e80056
:101b4000c00498002cfd2f000f0646001b00370034
:101b5000d0022000800f5500030032002cfd2f0022
:101b60000f0646001600370030fd2f000f0440001e
:101b7000aad79f00590090000000e900d004980007
:101b8000c90090000a0033000100e800c00498007a
:101b90001900900099017800120020008000eb00ed
:101ba00003000100000578000806780004003700f3
:101bb0000100e800c0049800080678000085eb00ea
:101bc00098922000390090009000fb0008007800f7
:101bd00048fc0700080050002192200060c47800f3
:101be0008805fb0000032000800f550033003a00f9
:101bf000590090000000e900d0049800c90090004e
:101c00000c0033000100e800c004980019009000a7
:101c100099017800120020008000eb000300010011
:101c20000005780080072000800f550005003a006d
:101c3000070037000100e800c00498000085eb00b1
:101c40001b00370080052000800f550018003a0067
:101c50000804e00002003200f04f54001d003a007a
:101c6000590090000000e900d0049800c9009000dd
:101c7000090033000100e800c0049800190090003a
:101c800099017800120020008000eb0003000100a1
:101c900000057800030037000100e800c004980048
:101ca0000085eb000047eb000b012000110037001e
:101cb0000804e000b8003200060037000047eb00df
:101cc0000804e00004003a00ad0020000847780056
:101cd0001c0037001ec0b300ad002000ea4f5400c6
:101ce00018003200e88f550002003a008b06780099
:101cf000140037006d0120001200370059009000d9
:101d00000000e900d0049800c900900009003300e9
:101d10000100e800c00498001900900099017800c3
:101d2000120020008000eb00030001000005780095
:101d3000030037000100e800c00498000085eb00b4
:101d40001ec0b30000032000800f5500ebff3200df
:101d50000e04e00018003200005e78001600370024
:101d60006f805700800f5600010031000a5e780036
:101d7000590090000000e900d0049800c9009000cc
:101d8000090033000100e800c00498001900900029
:101d900099017800120020008000eb000300010090
:101da00000057800030037000100e800c004980037
:101db0000085eb001ec0b300e10f450007003200b4
:101dc0000d0178008a0078001093200036ff07008c
:101dd0000000e000e2ff3a00660037004900900092
:101de0000000e900c00498000e04e00008003a007a
:101df00020fd2f000f004000800f56005b003a00ce
:101e0000e10f450059003a008a007800650037006c
:101e1000004eeb0069489000110020000004e00033
:101e200060003a00390090009040780040c6b3004e
:101e300080cf5000030032006540400080cf50004a
:101e40000a003a000b0178008000eb0020fd2f0013
:101e50000f004000660107000203be000002be0042
:101e600010c0b300805498000d0037000b017800bb
:101e70008000eb0020fd2f000f004000b60107009e
:101e80000203be000002be0010c0b30080549800e0
:101e9000b900900000c7b300914f10002c00320031
:101ea000f9489000c0c6b30080cf50002200320035
:101eb0000a003c006440500080cf500024003200f3
:101ec00000c0e80080cf500014003200684050008d
:101ed00080cf50001e003a000a00370040c7b30010
:101ee00080cf50001a0032006640400080cf500082
:101ef000170032006940500080cf500014003a00b3
:101f000006003700290090000080e900a004980036
:101f10001000780004487800120037002900900073
:101f20000080e900a0049800100078000498be002a
:101f30000690be000b003700290090000080e900e9
:101f4000a0049800100078000488be000500370047
:101f5000290090000080e900a0049800100078009b
:101f600004087800110020000e0037008000eb000c
:101f70000c003700490090000000e900c004980000
:101f800019009000990178000001eb008a007800a8
:101f90000300010094ff37001ec0b3008b00200037
:101fa00052ff3700010078004f0778004f06be004f
:101fb0004f05be004f04be002f02b1000000060016
:101fc00080017800100037000302e800d0c2b3009f
:101fd000944f100008003a0093cf100003003e0019
:101fe0002340900080cf50001100360063824100f2
:101ff000630151000300370093cf10000c00320042
:102000000201e90084017800e20f5100eeff3e007a
:102010000400370093cf1000050032008301e80070
:102020000201e9000200e000faff3a000100370077
:10203000120020000200780000000600f087470030
:10204000889fbe008a9fbe008c9fbe008e1f7800b6
:1020500000047800810678000000eb00c0b79f0004
:10206000f8489000c0c6b30080cf500002003a008c
:1020700011002000c1b79f000d00e00023003d00cb
:10208000b80090000100e80030049800e2c5b300f9
:102090008041eb0083f79f00904f110003003a004e
:1020a0000180e8003004980082f79f00b804900097
:1020b000d0c5b300994f100002003200090078002b
:1020c000010037000900e800d105200009fb0700e6
:1020d000d0b79f008000eb000000e000bd003200a0
:1020e00009065000e20f5600080034000c81e90098
:1020f0000900e800d10220006bfe070011c0b30008
:10210000c1ef9f000000e00002003a008041eb00b8
:10211000c3ef9f00680090000000e00004003c0056
:10212000f0ff27000d00e00001003a001000200041
:1021300050049800684890000004e0000d003a0048
:1021400028009000cfb097000100e00005003200a9
:102150000080e9002004980010007800b0b79f00cc
:10216000040037000080e900200498001000780087
:10217000f0b79f000045eb005e0037000d00e00067
:102180000300340009007800f1fc07001e0037004e
:102190000d00e0001e003200cfe997000304e000cc
:1021a0000c003a00380090008ff097000104e00026
:1021b00004003a000c017800890078003afe07001c
:1021c0000b0037000c0178008900780036fe07000c
:1021d0000d003700380090008ff197000304e000f5
:1021e00006003a000c0178008900780074ff0700af
:1021f0000000e00006003a006d0037000c01780096
:10220000890078006eff07000000e00068003a00d7
:102210004fb097000000e00009003a0068489000c5
:102220000004e00032003a00ffb0970089587800bf
:10223000f1b79f0010c0b300005498002c00370085
:10224000c9e79f008905fb000b0078000100320000
:1022500010002000000578001e0020000000e000b3
:1022600016003a000904e00004003a007c805700a0
:10227000f0f807000005e800100037000e07e9003d
:10228000fc81570063407f008000fb004801900004
:10229000e14f4000070032000200e90040049800ce
:1022a00018009000980178000001eb000300010085
:1022b000020037000200e900400498008e0f55002c
:1022c000eeff3500684890000004e00005003a0089
:1022d0003fb097000b187800b0b79f0010c0b30054
:1022e00000549800680090000000e9006004980025
:1022f0002ac0b300580090000000e9005004980084
:10230000480190000b0033000200e80040049800f0
:102310001800900098017800120020008000eb0067
:102320000300010080047800e10f400093ff3a00b1
:10233000020037000200e8004004980048009000c6
:102340000000e900400498000d00e00002003200a7
:10235000e24f5500040032000a00fb008080eb00d1
:102360001c00320010003700684890000004e000b4
:1023700009003a00cfb097000100e00003003200ee
:10238000bfb197008009eb00030037008fe897008a
:102390007fb09700014878000d00e00002003d008a
:1023a000dfb19700330498001100200009003700c6
:1023b000480090000000e9004004980018009000d8
:1023c000980178000001eb0089007800030001000b
:1023d000ddff3700010078004f0778004f06be0090
:1023e0004f05be004f04be000f01b1000000060003
:1023f0000200fa00889fbe008a9fbe008c1f7800f2
:102400008005780001057800020678000100e000f0
:1024100001003a006c8557000b047800010037007a
:102420000804e800984478000900fb0048fc070015
:102430000000e000faff3a00d0c2b30080cf5400a1
:102440000500320000c0e90080cf540002003200d5
:1024500080447800010037000804e8000c0178008f
:102460008a007800080078003b0007000203be00e5
:102470000002be009a0f540001003a000b0d7800d4
:102480009a8f550005003a00e00f5200e08f5a0085
:10249000e00f5b00e08f5b0014003a00b0c2b300b5
:1024a00080cf540006003a00e00f5200e08f5a003f
:1024b000e00f5b00e08f5b0020003d000b00370069
:1024c000d0c2b30080cf54001c003a006000b800b6
:1024d00002002000030028000020e10001a8e10024
:1024e00002b0e10003b8e1000e0036002002200037
:1024f000e04c88006b40400080cf540004003a005c
:102500006000b80002002000030028000d00370022
:10251000f0ff2f00f1ff2f00f2ff2f00f3ff270045
:10252000080037006000b8006011b80004025000d5
:102530008582580006035900878359000400be00b5
:102540000601be004f0678004f05be004f04be00d6
:102550000080fa0000000600fc874700889fbe004c
:102560008a9fbe008c9fbe008e1f780000077800f7
:1025700081067800820478000004780001003700aa
:102580000804e800184678000c00fb00f0fb070088
:102590000000e000faff3a00d0c2b300804f5600be
:1025a0000500320000c0e900804f560002003200f2
:1025b00000467800010037000804e8000900e00048
:1025c00005003500e18f5400030032004002200076
:1025d000808f5400040034000d00e000b000320091
:1025e0008e0e7800ae0037000900e0000e003400c7
:1025f000f08f54001a003a0000c3b300984f100047
:1026000016003a009840900080c7b30080cf500079
:102610000300320080c5b30080cf50000f003a00a5
:102620000884e8000e003700a900200000c3b300b2
:10263000984f10000a003a009840900080c7b300fd
:1026400080cf5000040032008900200080c5b30014
:1026500080cf500002003a000884e8000901200001
:1026600008057800010037000a05e80000c3b30040
:102670009a4f1000fcff32008a0578006022b800f3
:102680006033b800260037005087200080c050001b
:1026900081ef9f0009027800cfa2de0005037800d9
:1026a000860378000fb097009fb097002fb1970076
:1026b000bfb1970031040700d0b79f00e1b79f007a
:1026c000f2b79f0083bf9f000fe897000002fb0056
:1026d000cfa2de0005037800860378008b05e800b2
:1026e0000fb097009fb097002fb19700bfb1970030
:1026f000c0af9f00d1af9f00e2af9f00f3af9f003c
:102700005fb09700efb097007fb197008fb9970047
:102710000002420081824a0002034b0083834b0087
:1027200084b79f0095b79f00a6b79f00b7b79f00db
:102730001b00fb006a000700800078000901780098
:1027400050872000d8fc0700800078000000e000df
:10275000cdff3a008b0f54000a003a000d00e00054
:102760004f0032008e0e78006022b8006033b8004f
:1027700084b79f0095b79f00a6b79f00b7b79f008b
:102780004d0037008a8055000085200069407800a0
:102790000000fb00008050002c0033004240a900e4
:1027a00020003c008fea97000500fb00cf80de0090
:1027b00001017800820178000fb297009fb2970064
:1027c0002fb39700bfb397000000520081805a00da
:1027d00002015b0083815b000020e10001a8e100b1
:1027e00002b0e10003b8e1000e00390009027800f0
:1027f000cfa2de00050378008603780058030700a7
:102800004faa9700dfaa97006fab9700ffab970026
:102810000400e1000588e1000690e1000798e1006e
:102820000a00320020022000e04c8800f0ff2f0058
:10283000f1ff2f000001be0080b79f0091b79f00fd
:10284000a2b79f00b3b79f0011003700d0c2b300fa
:10285000804f56000e003a006000b8006011b800ca
:102860000fb297009fb297002fb39700bfb39700a6
:1028700004025000858258000603590087835900de
:1028800084b79f0095b79f00a6b79f00b7b79f007a
:102890000d00e000080032008b0e780006003700c3
:1028a0006000b8006011b80080b79f0091b79f002a
:1028b000a2b79f00b3b79f000fb097009fb09700db
:1028c0002fb19700bfb197004f0778004f06be00a9
:1028d0004f05be004f04be00cf01b100000006004e
:1028e000800078001104b100030035009101b100af
:1028f00001003c000050a000000006000c02e200b5
:1029000004003d000f42ab00020032000f02ab009a
:10291000feff32000040da00feff3700889fbe0055
:10292000800478009e09e20004003a000000eb00f9
:10293000100007000000e0000a003500f04c8000a5
:102940000900e00002003a000004780006003700a9
:102950000004780009004000060007000000e000c5
:1029600001003d000084eb00080078004f04be0029
:1029700000000600800078000000e00004003a003b
:10298000603b2200f04c880001017800060037000f
:102990000081eb00605b2200808f500002003e004f
:1029a000f14c88000001eb000200780000000600f6
:1029b000839f68000100e00002003d0060001000fd
:1029c000e08018000300e00002003d0060011100fb
:1029d000e08119007d0107004f00e00002003b008c
:1029e00060001000e080180000000600889fbe0014
:1029f0008a9fbe00010578000100e0000400350058
:102a000008003c000000e000200032000500370014
:102a100060001000e080180002003b0001f02c0074
:102a20001a0037000004be006011b8006b092000d6
:102a30000982cf00020039000882cf000441b000b3
:102a4000694252000e00320008003b008281710092
:102a5000610164008904d1000884d3008b05e8007b
:102a60000442e800f9ff3a0005003700080444007a
:102a700089844c008b05e9000442e900fbff3a0021
:102a8000620107000af0a70001f0a0004f05be0098
:102a90004f04be0000000600889fbe008a9fbe0053
:102aa0008c1f78007f0107008601330003866c00cd
:102ab0006450e1002e0032006420e1003300320057
:102ac0006150e1002f0032006120e100310032004e
:102ad00085855500eb07b0000900200008042000a0
:102ae000050037000804440089844c000a003100c6
:102af0000603430087834b000001530081815b0084
:102b0000f8ff33000203be000800a00008044400e0
:102b100089844c00f6ff3900c639dd00830173005b
:102b200001003200130020008904d1000884d30082
:102b30000998a300050032000800a7000300a000c8
:102b40008904d1000884d3008b05e8008904d100f2
:102b50000884d3000001eb000281d2002b010700a2
:102b600001f0a1000cf0a70001f0a0005e01370009
:102b70006420e100600132000801be000200be00d6
:102b8000f7ff37006120e1005b0132006000b80010
:102b9000f3ff37000000200001f82700f0ff3700a6
:102ba0000001be00570107000470a70003f0a10058
:102bb0006509b100160032000d0035006828e100fb
:102bc00006003500f0ff2f00f1ff27000300e000b2
:102bd00013003b0001002800000005000000400039
:102be000818048008502e900fcff3a0008003700b8
:102bf000f88f420002003c008000eb00000005005e
:102c00008100d1000080d3008502e800fcff3a007b
:102c10000300e00002003b0060001000e0801800ac
:102c200000000600889fbe008a9fbe008c1f7800af
:102c30000004be00330107000478a30026003a0018
:102c40006120e1002500320009f8a30025003a00c8
:102c50006420e10021003200f507b1000508a3005f
:102c60000200320000004000818048006044b8004b
:102c70000310200002002000000040008180480076
:102c80000805440089854c000a0541008b854900f0
:102c90000a0550008b855800030033000a00be006f
:102ca00002047400838474008301d1000281d30084
:102cb000830f7100f0ff3a008904d1000884d3002b
:102cc0006001490082017800c1adde00fb07b00061
:102cd000ce000700040137000960a0000800be0014
:102ce0000101370012022000e24c8800f0ff2f00a3
:102cf000f1ff2700fc003700889fbe008a9fbe00be
:102d00008c1f7800e70007001002200002003b0043
:102d1000e04c8800eb0037008a0062006408e100a4
:102d200002003a00e04c8800f30037006108e1003f
:102d3000fcff32000800be000304780056ff0700c5
:102d400001f0a1000401070008f0a600040037000c
:102d50000001be0091042400b0fd200037000700f0
:102d600009f0a70001f0a200df003700889fbe0035
:102d70008a9fbe008c1f7800ca000700d100330074
:102d800003866c006450e100240032006420e100fe
:102d9000270032006150e100220032006120e10092
:102da000210032008b854200eb07b1000134b800ee
:102db000003ab8000804420089844a00013ab80089
:102dc0000030b8008880400009014a000400330048
:102dd0000000400081804800020149008b05e900a5
:102de000c909dd00830170000100320013002000da
:102df000c814de004814dd004709de001200b200ee
:102e0000c808de00088470008000070001f0a100ff
:102e10000cf0a70001f0a000b30037006120e10032
:102e2000b50032000801be000200be00f7ff370007
:102e30006150e100fcff3a00af00370003f0a20050
:102e4000889fbe008a9fbe008c1f780095000700f7
:102e50009c0033006450e1004f0032006420e10028
:102e60005200320003826c0007003b000905d000cd
:102e70000306d000820f54000c065d0002003900ea
:102e8000020032008901780003067800858255002f
:102e900004003d000003fd008103fd008502ea00ff
:102ea0008b854200840f720002003b00600010001e
:102eb000e08018006011b8000005eb007a28e100fe
:102ec0000a00390006007800c75ddd00f707b20090
:102ed000878075002d003700828171000a0178001b
:102ee000610560008180d1000080d3008502e90087
:102ef000f9ff3b00060440008784480002003b00c5
:102f000060041400e0841c000988a300070032005c
:102f10008a81710082817100610164008904d1009d
:102f20000884d3008b05e800170037000978a30058
:102f300013003a000b00e000130034008b05e90099
:102f40000804440089844c000a4474000978a300f2
:102f50000d003a000b00e000070034008b05e9008b
:102f60000804440089844c0001003a000b00200052
:102f70000978a300f7ff32000001eb0002003700e0
:102f8000828171000a017800200007000cf0a70080
:102f900001f0a000540037006420e10002003a0074
:102fa000838f6c00540033000801be000200be0095
:102fb0004d00370014002000cc003700f4ff2f0034
:102fc000ca00370004002000c80037006022b800a3
:102fd000060220000000d0008180d2000482d200ce
:102fe0008582d2000000a0000202520083825a00b3
:102ff000030031000202420083824a000000a10067
:103000000603e900f3ff3a000000060081002000fb
:10301000618055000b003d000b00200061fe2f0079
:103020000100e1001d003400828171006101640033
:103030008904d1000884d3000000e800faff3a00b8
:103040007100200061006400030070000200600055
:103050000900320061044400e0844c000988a500a6
:10306000050032008b05e8006808e10002003a0024
:103070008904d1000884d300f20f20000258e10037
:1030800005003d00c75ddd00f907b20089807500cd
:1030900008007800000006000bf827008b0078007d
:1030a000000005000004be00160007000003be007b
:1030b0000405be000200be0012000700844f750028
:1030c000000006000200be006450e100050036006a
:1030d0006420e100020036000968a30001003a0004
:1030e0000800be000160a0004f0678004f05be003a
:1030f0004f04be0000000600f0ff2f00f1ff270084
:10310000f9ff3700c70ade00f107b200f50fb20081
:1031100008003200e1cf4200020032000170a0003e
:1031200024000500810f7000010032000408050032
:1031300044000500810f700002003a0014000500f1
:103140008502e9000000400081c04800fcff3b0010
:103150000170a00024000500889fbe008a9fbe0069
:103160008c9fbe000004be00e6ff07000800be0002
:10317000890678006420e10008003900040032006c
:103180000160a00012022000e24c880053003700ca
:1031900091fc2300b0fd20004e0037000006eb003c
:1031a00009f0a10003f82300020020000800be007f
:1031b00080ff07000600340001f823000000200013
:1031c0000801be0034fe07000004be002c002000f1
:1031d0000800be0093e82300320a230075ff0700b1
:1031e000120034000801be00d1fd2300703d2b0009
:1031f00013ff07000005be00b3f32300f27a260098
:103200000800be00d9fe070003f8230002002000da
:103210000aff07000801be0009ff07000a01be00ff
:103220001dfe07000004be000c06e8000800be00fa
:1032300001f0a10002002000039823005dff0700b9
:103240000800be00160035000801be00c7fe0700da
:103250000005be0032cd2c0043fb2300f8fe070022
:10326000809fbe001269280003d52b000a00be0013
:10327000befe0700620f210013ef2b00f0fe0700d7
:103280000a01be00b9fe07004f01be0002fe0700a2
:103290000801be00b5fe07000801be00e8fe0700f9
:1032a0000c00e0000b0032000c10a70001f0a2009f
:1032b000b2fd200093fc23006260e10004003200b4
:1032c00022a9200063f023000c10a70063f823005c
:1032d000dbfe07000df0a70001f0a2004f06be00c4
:1032e0004f05be004f04be0000000600889fbe00d0
:1032f0008a9fbe00841f78006aff07004f00780095
:1033000011003300f0ff2f00838f6c0006003b009c
:10331000040565000a00a7000800370009f0a600b0
:103320001000200008003700820f5400838f5c00db
:10333000030039001000200001003e0000002000c2
:1033400009f0a7000000ea004f05be004f04be00d0
:103350000000e00000000600881f780000047800ec
:103360005001be004000be000400400085804800bf
:103370000601490087814900009cbe000294be00fe
:103380000400e1000588e1000690e1000798e100f3
:1033900002003100680044001008e8004f04780083
:1033a000000006001000fa00889fbe008a9fbe0041
:1033b0003004be002005be00c8b79f00d9b79f00eb
:1033c000eab79f00fbb79f000404540085845c00ab
:1033d00006055d0087855d0088bf9f0099bf9f003f
:1033e000aabf9f00bbbf9f000898be000a98be00fe
:1033f0008000eb004fb49700dfb497006fb59700e3
:10340000ffb597000440e10005c8e10006d0e100e7
:1034100007d8e100010031001100200010881000e1
:103420004f05be004f04be000080fa0000000600f9
:103430001200fa00889fbe008a9fbe008c1f780091
:103440000205be000004be00f4b79f0085bf9f00c8
:1034500096bf9f00a7bf9f000000eb00e0b79f0052
:10346000d0b79f00c0b79f00b0b79f00a0b79f0024
:1034700000067800dfb097006fb0970000014000b1
:103480000000e0000a003d008c00070001003d0044
:10349000120020009200070001003d0012002000f1
:1034a000970007007c805700abff0700090037003a
:1034b0008200070001003d00120020008800070084
:1034c00001003d00120020008d0007007c805700a5
:1034d000b4ff07006fb297000400e000070035005a
:1034e00010002000010020006011b80008047000e6
:1034f000898470000a0571008b8571000c06e80054
:10350000f0032000800f5600daff34000400e000d2
:1035100006003d007fb297008fba97001fbb97004f
:10352000afbb97007c8057008bff07006fa8970008
:103530000000e00004003a002fb49700bfb49700e9
:103540004fb59700dfb59700890007004f06780058
:103550004f05be004f04be000080fa0000000600c8
:10356000881f780018002000881f7800b0ff07002f
:103570008f87e9004f04780000000600801feb00f1
:10358000abff07008f87e90000000600889fbe00a0
:103590008a9fbe008c1f78006e00070005003d006a
:1035a0002f00070007003d003d0007000006eb006c
:1035b000040037003f00070002003d003000070014
:1035c0001c0020006a000700e5ff07000203be00a0
:1035d0000002be000c00e0000100320028000700dd
:1035e0000400be000601be004f0678004f05be0075
:1035f0004f04be0000000600889fbe008a9fbe00e8
:103600008c1f78005300070003003d0014000700e2
:1036100006003d00040037002600070003003d00bf
:103620006000b8006011b8001d00070050000700de
:10363000d2ff07000203be000002be000c00e00043
:10364000010032000e0007000400be000601be00ab
:103650004f0678004f05be004f04be000000060074
:103660006000b8006011b800080450008984580058
:103670000a0559008b8559001c0020000300370003
:103680006000b8006011b80005003700e00f52007c
:10369000e08f5a00e00f5b00e08f5b000000060047
:1036a00004025000858258000603590087835900a0
:1036b000000006000006eb00f4ff37004f08de00b4
:1036c00000007100c0b79f0001804000b0b79f00ac
:1036d0000001eb00afb097000100e0000000060021
:1036e00002007000b0b79f0001804000a0b79f00ab
:1036f0000001eb009fb097000100e0000000060011
:1037000002007000a0b79f00018040000fb2970038
:10371000cf20de000100700090b79f00040242003d
:10372000130007004f18de000002720084b79f00ec
:103730000804440089844c000a054d008b854d0027
:103740005fb29700efb297007fb397008fbb9700ef
:10375000000006000205be000004be00e00f50009d
:10376000e08f5800e00f5900e08f5900000006007c
:103770000800be000a01be0000000600889fbe00cf
:103780008a9fbe008c1f78000205be000004be00a8
:103790000006eb00e00f5000e08f5800e00f5900ea
:1037a000e08f590007003d006000b8006011b800cc
:1037b00008045000898458000a0559008b85590077
:1037c0001c002000e00f5200e08f5a00e00f5b0069
:1037d000e08f5b0002003d000f0007000c00a2001c
:1037e0000800be000a01be00120007000203be006e
:1037f0000002be000c00e0000100320006000700dd
:103800000400be000601be004f0678004f05be0052
:103810004f04be00000006006000b8006011b80050
:10382000040250008582580006035900878359001e
:1038300000000600889fbe008a9fbe008c9fbe00cd
:103840000404b8000506b8008904460060854e00ef
:103850000606b8000a054600e0854e000706b800d7
:103860008b054600040eb800890446000a854e0008
:10387000e0854d00050eb8000a0546008b854e0018
:10388000060eb8008b0546000416b8000a0546006f
:103890008b854e000516b8008b054600041eb80047
:1038a0008b0546000800be000a01be004f06be00a0
:1038b0004f05be004f04be00000006000000fa00e5
:1038c000c4c2a900c4e2a900c522a900c582a900fa
:1038d000c542a900c5a2a900c5c2a900c5e2a900a8
:1038e000c0c2a900c0e2a900c122a900c182a900ea
:1038f000c142a900c1a2a900c1c2a900c1e2a90098
:10390000d022a900cc22a900d042a900cc42a90013
:10391000e2e2a900e302a900e802a900e822a90066
:10392000dee2a900df02a900e402a900e422a90066
:10393000e202a900de02a900d602a900d622a9004f
:10394000d642a900d662a900d682a900d6a2a900b3
:10395000d6c2a900d6e2a900d202a900d222a900ab
:10396000d242a900d262a900d282a900d2a2a900a3
:10397000d2c2a900d2e2a900d1a2a900cda2a90079
:10398000e842a900e862a900e442a900e462a900b3
:10399000de22a800dec2a800e4c2a800e4e2a8007b
:1039a000e502a800e522a800d302a800d322a800bf
:1039b000d342a800d362a800d382a800d3a2a80053
:1039c000d3c2a800d3e2a8000080fa0000000600dd
:1039d0002200fa0070079800010f9800120f98005b
:1039e000230f9800340f9800450f9800560f980049
:1039f0007e009000200db000700798000e08900027
:103a000067004000000f98004e0890000000e000a2
:103a1000030032003e0890000000e00003003a007e
:103a20000080eb00600f980004013700fe0090005a
:103a30001e0890008080400020352000808f5000bc
:103a4000030036008080eb00610f9800fb00370018
:103a50008e0890002e08900080804000701e20008c
:103a6000808f5000030036000080eb00600f98004c
:103a7000f20037001e0890003e0990001100090076
:103a80000280d8008000fd000000e000030032004a
:103a90008080eb00610f9800e80037002e0890004e
:103aa0004e099000110009000280d8008000fd003e
:103ab0000000e000030032000080eb00600f98007f
:103ac000de0037004e089000630060000000e00058
:103ad00033003a003e089000630060000000e00000
:103ae0000f003a0030032000000f78004e089000cd
:103af0004200de00200798003e0890004200de00f1
:103b0000100798000e08900064005000000f980005
:103b10007e0090006400500070079800500037004d
:103b20003e089000610060000000e0000f003a00d5
:103b300010012000000f78004e0890000000d10016
:103b4000200798003e0890000000d1001007980060
:103b50000e0890000080e900000f98007e009000a1
:103b60000080e900700798003d0037004004200005
:103b7000000f7800ce089000210798003e089000c2
:103b8000100798000e0890000000e900000f980050
:103b90007e0090000000e9007007980030003700b8
:103ba0004e089000610060000000e00020003a0034
:103bb0003e089000610060000000e0000f003a0045
:103bc00010012000000f78004e0890000000d10086
:103bd000200798003e0890000000d10010079800d0
:103be0000e0890000080e900000f98007e00900011
:103bf0000080e90070079800190037004004200099
:103c0000000f7800ce089000210798003e08900031
:103c1000100798000e0890000000e900000f9800bf
:103c20007e0090000000e900700798000c0037004b
:103c300040042000000f7800be0890001107980093
:103c40004e089000200798000e0890000000e90040
:103c5000000f98007e0090000000e90070079800b7
:103c60001e0090000000e900500798002e00900010
:103c70000000e900600798001e0890003e099000cf
:103c8000110009000280d800400798002e0890001b
:103c90004e099000110009000280d80030079800fa
:103ca0005e089000510107000000e00003003200b0
:103cb0008080eb00610f9800600037001e007800e4
:103cc0006c0107000000e000030032000080eb0000
:103cd000600f9800590037005e0890000000e00077
:103ce00017003a009e007800710f98003003200002
:103cf000fe089000808f50000e003200400420002b
:103d0000fe089000808f5000040032007e08900072
:103d1000f10f5000040032001f00370000032000a4
:103d20006b0107001c00370000022000680107003b
:103d3000190037000000eb0065010700160037008e
:103d40009e00780001179800300320008e1090002c
:103d5000808f50000e003200400420008e10900032
:103d6000808f5000040032000e109000f10f5000c0
:103d7000040032000800370000042000540107004e
:103d80000500370000032000510107000200370042
:103d9000000220004e010700313520007e00900017
:103da000700107000000e000030032008080eb009b
:103db000610f980021003700811e20000e0890003e
:103dc000970107000000e000030032000080eb00d4
:103dd000600f9800190037007e0090000001e80095
:103de000711e20000e089000b90107000000e000dd
:103df000030032008080eb00610f98000f00370055
:103e00005e08900010000700000178006e0290002c
:103e1000de019000ce0090003e009000730007008d
:103e20000000e000030032000080eb00600f98000b
:103e3000020037008000eb00610f98006e089000d0
:103e40000080fa00000006000600fa00000f78006b
:103e50001e007800200798002e009000e10f50000f
:103e60000a0032002e009000e20f50000a003200db
:103e70002e0090000000e000010032000900370031
:103e800010002000100798000800370020002000d4
:103e90001007980005003700200020001007980048
:103ea0000200370010002000100798001e0090004c
:103eb0000080fa00000006000200fa007ffe070002
:103ec000fd060700d1a2a90040062000000f7800df
:103ed00002003700000000001e0fe9001e00e00095
:103ee000fcff3a00d1a2a80040062000000f780095
:103ef00002003700000000001e0fe9001e00e00075
:103f0000fcff3a0081e0a900f1048000f0002f00de
:103f1000808060000066200000804000f00488007f
:103f20000080fa00000006003400f800881f7800c6
:103f300008c0b300a80188004f0478000000fa0010
:103f400086c0a9001fe1a80021e1a9000080fa00b5
:103f50003400f900004006000000fa0020002000b4
:103f6000000988000000eb00c00888001000200055
:103f7000e008880086c0a9008ec0a80021e1a80042
:103f80000080fa00000006000000fa002000200077
:103f9000f0088800f0088100a0088800f00881007f
:103fa0000000e800d008880086a0a9001fe1a90051
:103fb0008ea0a8000080fa00000006000200fa00af
:103fc000000f78000000eb00b04c88001e00780065
:103fd000000989000000eb0010098900eaff0700d2
:103fe000ddff07000080fa00000006001200fa0062
:103ff000300798004107980052079800630798001f
:10400000740798000000eb0010079800ce009000a5
:104010005e0090000088b900800078006e0090007b
:104020000000e8000088b9000000e8008000780087
:10403000a0142000808f5000030036000080eb00a9
:10404000000f9800320037000000eb0020079800b6
:10405000210037000000eb00000f78000800370057
:104060001e0190004112220010c0b30000f1780040
:104070001e0090000000e800100798001e0fe800e6
:104080005e0090009e0f1000f5ff35000000eb0071
:10409000000f7800080037001e0190004112220036
:1040a0000040eb0000f178001e0090000000e800e6
:1040b000100798001e0fe800ee0090005e009000d0
:1040c0000088b9009e0f5000f3ff3c002e009000c6
:1040d0000000e80020079800ae0090004e0090001d
:1040e000808f5000dbff35001e019000411222003e
:1040f00020c0b30000f178007e009000f008890035
:104100003e009000c04c88000000eb00000f9800bb
:104110000e0890000080fa00000006000000fa007f
:10412000100981000080fa00000006000200fa0079
:10413000650607000000eb00000f78000b00370059
:104140009e00e800e02622006140780000417800ef
:104150009e007800e02622006140780080407800d0
:10416000c0cdb300840607001e8fe8009e007800d3
:10417000700d2000808f5000f1ff360056060700ba
:104180000080fa00000006000200fa00881f780094
:104190004d0607000000eb00000f78000b00370011
:1041a0001e04e8009e007800e026220061407800ae
:1041b00080407800c0cdb3004b06070080407800f7
:1041c000e0262200017478001e8fe8009e0078002f
:1041d000700d2000808f5000f1ff36003e06070072
:1041e0004f0478000080fa00000006000600fa0084
:1041f000000f78001e007800200798002e00900025
:10420000e10f50000b0032002e009000e20f500032
:104210000c0032002e0090000000e000010032008f
:104220000c003700e1262200c0c0b300b0c09800e7
:104230000b003700e126220080c0b300b0c0980018
:1042400007003700e126220020c0b300b0c098006c
:10425000030037000080eb001007980002003700d1
:104260000000eb00100798001e0090000080fa008c
:10427000000006000400fa00000f7800400420004f
:104280009e0f100006003200100120009e0f10004b
:1042900003003200300320009e0f100007003a0098
:1042a0001e00780080407800e026220031709800df
:1042b0000000eb0010079800020037000080eb00c0
:1042c000100798001e0090000080fa000000060011
:1042d0000400fa00000f78001e00e0001500320014
:1042e000000220009e0f1000120032000003200088
:1042f0009e0f10000f003200000420009e0f1000df
:104300000c003200000520009e0f10000900320052
:10431000000620009e0f100006003200000620005c
:104320009e0f100003003200000120009e0f1000bd
:1043300007003a001e00780080407800e026220046
:10434000516898000000eb00100798000200370049
:104350000080eb00100798001e0090000080fa001b
:10436000000006000a00fa002007980031079800b4
:10437000ae0090003e009000808f50000300390096
:104380000080eb004007980022003700be0090003c
:1043900030382000808f5000030036008080eb0012
:1043a000410798001b0037002e0090000000e90034
:1043b000200798002e009000204798002e009000c3
:1043c0004800de00304798003e009000004f780023
:1043d0003e0090004800de0010479800e0262200d2
:1043e000be40900011489800e0262200ae409000a8
:1043f00031489800e02622009e409000115098001d
:10440000e02622009e407800315098000000eb002a
:10441000400798004e0090000080fa00000006005f
:104420000a00fa002007980031079800ae009000bb
:104430003e009000808f5000030039000080eb00a8
:10444000400798001f003700be009000301f20007a
:10445000808f5000030036008080eb0041079800f9
:10446000180037002e009000204798002e00900082
:104470004800de00304798003e009000004f780072
:104480003e0090004800de0010479800e026220021
:10449000be40900051489800e0262200ae409000b7
:1044a00071489800e02622009e40900051509800ec
:1044b000e02622009e407800715098000000eb003a
:1044c000400798004e0090000080fa0000000600af
:1044d0000e00fa0030079800410798005207980034
:1044e000be0090004e009000808f50000300390005
:1044f0000080eb006007980031003700ce0090008c
:10450000301f2000808f5000030036008080eb00b9
:10451000610798002a003700de0090003038200044
:10452000808f5000030036000080eb006007980089
:10453000230037003e009000404798003e00900066
:104540004800de00504798004e0090002047980039
:104550004e0090004800de00304798005e0090005a
:10456000104798005e0090004800de00004f780081
:10457000e0262200de40900011509900e026220043
:10458000ce40900031509900e0262200be409000bd
:1045900051509900e0262200ae40900071509900e1
:1045a000e02622009e40780011589900e026220063
:1045b0009e409000315899000000eb006007980081
:1045c0006e0090000080fa00000006000600fa006d
:1045d00010079800210798001e0090000000e000de
:1045e000060032002e0090000000e00003003200c0
:1045f000a0ccb300004f78000e0037001e009000e2
:104600000000e00003003200a0c4b300004f7800b7
:10461000080037002e0090000000e0000300320088
:10462000a0c8b300004f780002003700a0c0b3005c
:10463000004f78009e407800e026220071689800c4
:104640000080fa00000006000600fa0020479800eb
:10465000314798000000eb00000f78000e00370093
:104660009e007800e0262200e14078002e40900075
:1046700080cf500007003a009e00e800e0262200ac
:104680003e419000827078000000eb002007980007
:10469000070037001e8fe8009e007800700d200094
:1046a000808f5000eeff36000081eb00220798005b
:1046b0002e0090000080fa00000006000800fa00ba
:1046c00020479800210798000000eb00000f7800b9
:1046d0000f0037009e007800e0262200e1407800bd
:1046e0002e40900080cf500008003a009e00e80065
:1046f000e0262200e14078002e009000014878007a
:104700000000eb0030079800070037001e8fe8001c
:104710009e007800700d2000808f5000edff360065
:104720000080eb00300798003e0090000080fa0007
:10473000000006000200fa00004f780011479800c0
:10474000e02622009e40900011589800e0262200aa
:104750009e407800315898000080fa000000060062
:104760000800fa00004f780011479800224798008f
:104770003347980044479800f0c4b3009e4f1000a0
:10478000030036000080eb0030079800110037006e
:10479000e02622009e40780051589800e026220032
:1047a0009e40900071589800e0262200ae40900094
:1047b00011609800e0262200ce4090003160980001
:1047c000e0262200be409000516098000000eb00ff
:1047d000300798003e0090000080fa0000000600bc
:1047e0000400fa00008fbe001e00be004a09dd0072
:1047f0004600de0000007100c608de008040780040
:10480000e0262200116898001e00be004209dd006b
:104810004e00de0000007100ce08de00804078000f
:10482000e026220071609800e12622000040eb00a3
:10483000b06898000080fa00000006000200fa004c
:10484000004f7800e02622009e40780051709800ca
:104850000080fa00000006000200fa00000f780055
:104860001e00e00007003200e0262200d0c09000c9
:1048700000c8b30080c07000e026220051c098003c
:1048800006003700e026220050c0900080407800eb
:104890000174a100e026220051c098000080fa00b7
:1048a000000006000400fa00004f7800114798004d
:1048b00022479800e02622009e40780011c8980008
:1048c000e02622009e40900031c89800e026220099
:1048d000ae40900051c898000080fa000000060029
:1048e0000200fa00004f7800114798001e4078003f
:1048f0007f4060000045b00080407800e026220044
:1049000071c89800e02622009e40900011d09800c7
:104910000080fa00000006000600fa001007980068
:10492000414798004e4090000000fb00630060008b
:104930004500dd008040780000c8b30000c04000a2
:1049400080407800e026220071d099000000eb0042
:10495000000f78000c0037001e00780000004000b7
:1049600032052000000141001e0078008000780020
:104970001e0090000080400090407800e026220059
:10498000017178001e0fe8001e007800e10f500052
:10499000f1ff36000080fa00000006000000fa0077
:1049a00049040700e026220070d091000041780001
:1049b000e026220060d0910080407800c0cdb30096
:1049c0006d04070044040700e026220080e8900000
:1049d000e026220020d09000020007000080fa00ac
:1049e000000006000600fa00404798005147980072
:1049f0000000eb00000f7800330407000000eb001c
:104a0000100798001b0037009e009000e02622004f
:104a1000e14078004e40900080cf500012003900f5
:104a20009e009000e0262200e14078005e40900069
:104a300080cf50000c003e001e0090008000e80077
:104a4000e026220061407800004178009e0090003e
:104a5000e02622006140780080407800c0cdb3009d
:104a6000450407001e0fe8001e0090000080e800cb
:104a7000100798009e009000700d2000808f50005d
:104a8000e1ff3600140407001e0078000080fa00e1
:104a9000000006000400fa00100798000000eb0078
:104aa000000f78000c0037001e0078000000400066
:104ab000b2062000000141001e007800800078004e
:104ac0001e0090000080400090407800e026220008
:104ad000017178001e0fe8001e007800e10f500001
:104ae000f1ff36000080fa00000006000200fa0024
:104af000004f780011479800e02622009e40780081
:104b000051f89800e02622009e40900071f898002d
:104b10000080fa00000006000200fa00004f780052
:104b200011479800e02622009e407800114099002d
:104b3000e02622009e409000314099000080fa005b
:104b4000000006000200fa00004f780011479800ac
:104b5000e02622009e40780051409900e026220085
:104b60009e409000714099000080fa00000006000d
:104b70000200fa00004f78001e80fb004400dd00b8
:104b80006f40400080407800e02622005158990094
:104b90000080fa00000006000200fa00004f7800d2
:104ba000114798001e80fb004400dd008040780023
:104bb0001e4090006f40600000c0400080407800c0
:104bc000e0262200715899000080fa0000000600db
:104bd0000200fa00004f7800114798001e40900034
:104be0000080fb004400dd00804078001e4078001b
:104bf0006f40600000c0400080407800e026220046
:104c0000116099000080fa00000006000400fa001c
:104c1000008fbe001e00be004088de00cf80de0098
:104c200080407800e0262200316099001e00be001e
:104c30004809dd004800de0000007100c888de0081
:104c400080407800e0262200516099001e00780024
:104c500080407800e0262200716099000080fa0010
:104c6000000006000200fa00004f7800e026220053
:104c70009e407800116899000080fa00000006004c
:104c80000400fa00000f7800110798001e00780059
:104c90004800de0080407800e0262200716899001c
:104ca0001e00780080407800e026220011709900f4
:104cb0001e0090004800de0080407800e0262200c0
:104cc000317099001e00900080407800e02622009c
:104cd000517099000080fa00000006000600fa00fa
:104ce000004f7800114798002247980033479800fa
:104cf0004447980055479800e0262200ae409000b7
:104d000071709900e0262200be4090001178990051
:104d1000e02622009e40780031789900e0262200ab
:104d20009e40900051789900e0262200ce409000ed
:104d300071789900e0262200de40900011c09900b1
:104d40000080fa00000006000a00fa00000f780058
:104d5000110798002207980033079800200d2000c3
:104d60001e0f40001e009000200db000100798009c
:104d70002e00900067004000200798003e00900041
:104d800067004000300798009e009000203520000a
:104d9000808f5000030036000080eb004007980031
:104da00049003700be009000701e2000808f500028
:104db000030036000080eb004007980042003700f7
:104dc0001e0090009e0f100004003100ae00900005
:104dd0003e009000808f5000030039000080eb00ff
:104de0004007980038003700501a20009e0f10002e
:104df0000c0036009e00900090272000808f50000d
:104e000008003e00ae009000700a2000808f500025
:104e100004003600be00900060142000808f500017
:104e2000030036000080eb004007980026003700a2
:104e30001e0078004800de0080407800e026220056
:104e400031c099001e00780080407800e0262200e2
:104e500051c099001e0090004800de00804078009c
:104e6000e026220071c099001e009000804078006a
:104e7000e026220011c899002e0090004800de00b4
:104e800080407800e026220031c899002e00900072
:104e900080407800e026220051c899003e00900032
:104ea0004800de0080407800e026220071c89900aa
:104eb0003e00900080407800e026220011d099004a
:104ec0000000eb00400798004e0090000080fa00c0
:104ed000000006000600fa0010079800210798005d
:104ee0001e0090000000e000060032002e0090003e
:104ef0000000e00003003200c0c3b300004f7800a0
:104f00000e0037001e0090000000e0000300320099
:104f1000c0c2b300004f7800080037002e00900098
:104f20000000e00003003200c0c1b300004f780071
:104f300002003700c0c0b300004f78009e407800e8
:104f4000e026220031d099000080fa00000006001f
:104f50000200fa00000f78001e00e0000700320097
:104f6000e0262200f0709000f0c7b30080c060001f
:104f7000e02622007170980006003700e02622002b
:104f8000f070900000c8b30080c07000e0262200de
:104f9000717098000080fa00000006000400fa001a
:104fa000000f7800110798001e00e0000700320093
:104fb000e0262200f0709000f0cbb30080c06000cb
:104fc000e02622007170980006003700e0262200db
:104fd000f070900000c4b30080c07000e026220092
:104fe000717098001e0090000000e0000700320081
:104ff000e0262200f0709000f0cdb30080c0600089
:10500000e02622007170980006003700e02622009a
:10501000f070900000c2b30080c07000e026220053
:10502000717098000080fa00000006000a00fa0083
:10503000e0262200506890000080fb0040079800a6
:1050400000032000ce009000808f5000310032001d
:1050500000032000ce009000808f50000b003c0029
:105060004e009000f00f500022003200000220009d
:10507000ce009000808f5000220032004e00900041
:105080000000e00017003200360037000005200065
:10509000ce009000808f50002600320000052000d6
:1050a000ce009000808f500005003c0000042000de
:1050b000ce009000808f50001a0032002900370087
:1050c00000062000ce009000808f50001d003200ae
:1050d00000072000ce009000808f50001d0032009d
:1050e000200037000000280001072000008fbe00cc
:1050f000200037000000200061092000008fbe0062
:105100001c0037000000240081032000008fbe0037
:105110001800370000002200c1012000008fbe00ef
:105120001400370000002100e1002000008fbe00c5
:10513000100037000080200071002000008fbe00aa
:105140000c0037000040280031002000008fbe0016
:105150000800370000202c0011002000008fbe0046
:10516000040037006000b80020079800310798005d
:105170000b003700e026220030c09000ec4f5000ba
:1051800004003a001e00be0000004000818048007c
:10519000008fbe001e00be00200798003107980057
:1051a0002e009000be0090000080fa000000060073
:1051b0001000fa0020079800310798004207980075
:1051c00053079800640798005e0090000000e0001c
:1051d000030035005e009000e30f50000300340030
:1051e0000080eb00700798005c0037006e009000b4
:1051f0000000e000030035006e009000e30f500057
:10520000030034000080eb00700798005300370063
:1052100086ff07000001be00606a20000013b8008e
:105220006010b9000702780000024200606a2000a6
:105230000098b90000024200840378002e0090001c
:105240006101b9000600be00d9f5070010079800fb
:1052500076ff07000001be00606a20000013b8005e
:105260006010b9000702780000024200606a200066
:105270000098b90000024200840378003e009000cc
:105280006101b9000600be00c9f50700000f7800f3
:105290001e0090004800de0080407800e0262200da
:1052a000317898001e00900080407800e0262200af
:1052b000517898001e0078004800de008040780099
:1052c000e0262200717898001e0078008040780067
:1052d000e026220011c098004e0090000000e0007f
:1052e00007003200e02622007070900080407800b5
:1052f0000144a000e02622007170980006003700eb
:10530000e0262200f0709000f0ceb30080c0600074
:10531000e0262200717098006e009000e34060006b
:105320005e009000630060004200dd0000c14000ac
:10533000e0262200707090008040780000cfb3001b
:1053400000c060000040410080407800e02622005c
:10535000717098000000eb00700798007e009000cc
:105360000080fa000000060000a0fe0086a0a90050
:105370001421ef0000000000010981004212220008
:1053800013002000321ce100050032000800350047
:10539000000000000000000000000000f9ff3700de
:1053a000a01680004800de0080587800f5ff370026
:1053b000010989009629ec00b04c80009809e300af
:1053c00003003a0010002000100989001fe1a90025
:1053d0000080fe00004006000000fa0000003700d8
:1053e00006c2bf00614060000004e000fcff3a001c
:1053f00006c2bf00644060000004e000f8ff3a000d
:1054000006c2bf00684060000004e000f4ff3a00fc
:1054100006c2bf00704060000004e000f0ff3a00e8
:1054200009c2bf000044b2000004e000ecff3a00f3
:105430000080fa00000006000400fa006009200065
:105440002010880007e2a90007e2a80085c0a90093
:1054500085a0a900b10920009140780080cfb30059
:1054600000c060005040b3009be0b7008da0a900d1
:105470000071220001002000008fbe0004003700f0
:105480000080eb008080eb001e0f40005e9748001c
:105490001e00be00e00f5000e08f5800f8ff3a00f9
:1054a000100020000080fa00000006000400fa004e
:1054b0006000b800008fbe0007e2a90085c0a90007
:1054c00085a0a9008da0a900007122000100200084
:1054d000008fbe00040037000080eb008080eb00ee
:1054e0001e0f40005e9748001e00be00e00f5000f7
:1054f000e08f5800f8ff3a00cfff07000f000700c9
:105500000071220001002000008fbe00040037005f
:105510000080eb008080eb001e0f40005e9748008b
:105520001e00be00e00f5000e08f5800f8ff3a0068
:10553000100020000080fa00000006000000fa00c1
:1055400085c0a9008dc0a800100020000080fa00ce
:10555000000006000000fa0085c0a9008dc0a90067
:10556000100020000080fa00000006000600fa008b
:10557000a138220010c0b3008048780008c2bf00e4
:10558000704060000004e000170032000602a8002e
:105590000071220001002000008fbe000b003700c8
:1055a000a0382200104078000004e00003003a0018
:1055b00010002000200798000d0037000080eb004d
:1055c0008080eb001e0f40005e9748001e00be006a
:1055d000e00f5000e08f5800f1ff3a008000eb0030
:1055e00021079800020037000000eb002007980018
:1055f0002e0090000080fa00000006000600fa006d
:10560000a138220060c0b3008048780008c2bf0003
:10561000684060000004e000170032000622a80085
:105620000071220001002000008fbe000b00370037
:10563000a0382200104078000004e00003003a0087
:1056400010002000200798000d0037000080eb00bc
:105650008080eb001e0f40005e9748001e00be00d9
:10566000e00f5000e08f5800f1ff3a008000eb009f
:1056700021079800020037000000eb002007980087
:105680002e0090000080fa00000006000600fa00dc
:10569000a138220050c0b300804878000642a8001c
:1056a0000071220001002000008fbe000b003700b7
:1056b000a0382200104078000004e00003003a0007
:1056c00010002000200798000a0037000080eb003f
:1056d0008080eb001e0f40005e9748001e00be0059
:1056e000e00f5000e08f5800f1ff3a008000eb001f
:1056f000210798002e0090000080fa0000000600ac
:105700000600fa00a138220030c0b30080487800bb
:1057100006c2bf00614060000004e00010003a00d3
:1057200006c2bf00644060000004e0000c003a00c4
:1057300006c2bf00684060000004e00008003a00b4
:1057400006c2bf00704060000004e00004003a00a0
:1057500006c2bf00624060000004e00003003200a7
:105760000000eb00200798001700370006a2a900f0
:105770000682a8000071220001002000008fbe00f8
:105780000b003700a0382200104078000004e00031
:1057900003003a0011002000210798000a0037009a
:1057a0000080eb008080eb001e0f40005e974800f9
:1057b0001e00be00e00f5000e08f5800f1ff3a00dd
:1057c0008000eb00210798002e0090000080fa0076
:1057d000000006000600fa00a138220030c0b30025
:1057e0008048780006c2bf00614060000004e0000d
:1057f00010003a0006c2bf00644060000004e000f0
:105800000c003a0006c2bf00684060000004e000df
:1058100008003a0006c2bf00704060000004e000cb
:1058200004003a0006c2bf00624060000004e000cd
:10583000030032000000eb0020079800170037003b
:1058400006a2a8000682a800007122000100200024
:10585000008fbe000b003700a038220010407800f7
:105860000004e00003003a00110020002107980026
:105870000a0037000080eb008080eb001e0f400024
:105880005e9748001e00be00e00f5000e08f5800f9
:10589000f1ff3a008000eb00210798002e009000f5
:1058a0000080fa00000006000a00fa0030079800a5
:1058b00000712200010020001007980021079800c5
:1058c0000040eb00004f7800a138220040c0b30038
:1058d0008048780000712200010020001007980025
:1058e000210798001d00370006c2bf00614060001c
:1058f0000004e00013003a0006c2bf0064406000ec
:105900000004e0000f003a0006c2bf0068406000db
:105910000004e0000b003a0006c2bf0070406000c7
:105920000004e00007003a0009c2bf000044b200d2
:105930000004e00003003a0010c0b300004f7800fc
:105940000b0037001e009000ae0090006100500078
:10595000e080580010079800210798001e00900072
:10596000ae009000e00f5000e08f5800deff3a00dc
:105970001e04e00003003a000000eb00400798001e
:105980001e0037000662a800006a280011002000ef
:10599000100798002107980011003700a038220056
:1059a000104078000004e00007003a0000c2bf0089
:1059b000804078003e0090000148780010002000f0
:1059c000400798000d0037001e009000ae009000c8
:1059d00061005000e08058001007980021079800ef
:1059e0001e009000ae009000e00f5000e08f5800c5
:1059f000eaff3a000000eb00400798004e009000dc
:105a00000080fa00000006000800fa0040479800f5
:105a1000a138220020c0b300804878004e4090009a
:105a200002e2b7000071220001002000008fbe00da
:105a30000b003700a0382200104078000004e0007e
:105a400003003a0010002000300798000a003700d9
:105a50000080eb008080eb001e0f40005e97480046
:105a60001e00be00e00f5000e08f5800f1ff3a002a
:105a70008000eb00310798003e0090000080fa00a3
:105a800000000600809fbe003400f80000c0b30094
:105a9000a00188000000fa0085c0a900a1382200fa
:105aa0000040eb00804878000080fa003400f900e4
:105ab0004f00be00004006000000fa005efe070036
:105ac0000080fa00000006000000fa009bfe0700bc
:105ad0000080fa00000006000000fa009dfe0700aa
:105ae0000080fa00000006000400fa002047980039
:105af000314798000040eb00004f78001800370055
:105b000010c0b300004f780098fe07001e4f6000e1
:105b10002e409000bcff07001e4f60003e409000ea
:105b2000b9ff07001e4f6000b4fe07001e4f600063
:105b30002e4090000040e800b3ff07001e4f6000b9
:105b40000e00e80058ff07001e4f600021ff07000d
:105b5000cefe07001e04e00003003a0053fe0700db
:105b60001e04e000e6ff32001e4090000000fb0033
:105b70000080fa00000006000600fa0020479800a6
:105b800031479800424798000040eb00004f7800f2
:105b90001200370010c0b300004f780073fe0700fa
:105ba0001e4f60002e40900097ff07001e4f6000c0
:105bb0003e40900094ff07001e4f60004e40900052
:105bc00091ff07001e4f6000b0fe07001e4f6000ef
:105bd0001e04e00003003a0034fe07001e04e0004b
:105be000ecff32001e00fb000080fa0000000600ff
:105bf0000000fa00dec2a8008200a8008400a9000c
:105c00008c00a8000080fa00000006003600f800b2
:105c1000809fbe00829fbe00849fbe00869fbe0004
:105c20003400f80000c0b300a00188000000fa00b2
:105c30008c00a9005101200060e422002d0607001d
:105c4000b13922000040eb0080487800b0392200d2
:105c500090407800a039220001487800a039220045
:105c600090407800c0392200014878000080fa0096
:105c70003400f9004f03be004f02be004f01be00ca
:105c80004f00be003600f900004006000200fa0096
:105c9000401d8100e10f40001c003a00e0c2bf003f
:105ca0000044b2000004e000070032008c00a800ad
:105cb0008400a90060e422003e0607000080eb009b
:105cc000401d8900680037009100200060e4220038
