:020000040000fa
:080000008e0204000000000064
:020000040000fa
:10020000fc1a040000000000d81b040000000000dd
:10021000a629040000000000800078001004e0001f
:10022000020032005104e000feff3a00008050005e
:1002300000000600889fbe0080047800d17c80000a
:10024000010078000100e0000a003a00c1f9200036
:100250009c0fe2001c00320011007800908f5400c7
:10026000140036008080e8001100e000faff3a0038
:10027000150037001100e00006003200110178007f
:10028000928f54000b0036008280e8001100e000dd
:10029000faff3a0010017800c1f92000e07c8000ec
:1002a000820f50000800320011007800908f540037
:1002b00002003e0001007800150037008080e80051
:1002c000910f1100f8ff3a00f87c8000890f54006c
:1002d0000100310009047800080078008800070058
:1002e000000178000000e00005003a000000eb008b
:1002f000890f5400060032000804d100f3ff3700d4
:10030000081978000200780044000700cbff37008e
:100310004f04be0000000600881f78006304400000
:100320000800a1000001eb00800f540022003600fd
:10033000e30f540001003e00480020000800780050
:10034000bcff0700800078000001eb000000e00027
:100350001900320010017800920178006480510089
:10036000880f5000030031001200900080087800d0
:100370000700370008004100800878001202900052
:1003800014009800110078000888510008097800ce
:10039000910078000100e00004003200110090009c
:1003a0008180e8000000e00001003a008000eb00de
:1003b000d17c88000281e800020078004f047800b8
:1003c00000000600881f780000047800227d80006d
:1003d000007d8000800f51000a0031008200d000b3
:1003e0000200e800207d8800107d80006100780018
:1003f00000000100227d8000007d8000800f510000
:10040000f6ff390040ee2000107d88002002200019
:10041000007d880008007800800007000000e000f0
:10042000360032000081e90012027800e30f52002a
:10043000320036000408a30030003a00e17c80005e
:100440000100e00002003200810f51000300310082
:1004500001087800e27c88001d00370081017800e7
:10046000110090000000e00008003200820f5000f0
:100470000600310080017800100090000000e000cc
:1004800002003200820f5000faff3900930078001a
:1004900001804100800f510018003900820f500088
:1004a00003003a0084894000030178000800370007
:1004b000930090000100e0000300320004004100be
:1004c000808f50000d0039001101980092019800b2
:1004d000920090000100e0000800320092017800d4
:1004e00003004100810f500004003a009a2fef00f2
:1004f00010894100100090001001980000000600d3
:100500000000e000030034004c000700e10f400051
:1005100001003a000000eb00000006000f19220065
:10052000807922000001880000000000050007001b
:100530000c000700ec0d0200000000000040da0093
:100540000000fe004440a900400e20000000e00032
:100550000300320000002000a00188004440a800f1
:1005600000000600803e2400010020001600370035
:1005700062004000e0804800910188009001ba00cc
:1005800062004000e0804800910188009002ba00bb
:1005900062004000e08048000002eb006028e100bb
:1005a00005003a008301e9000700330003800900d9
:1005b0000059eb00040037006128e100010032001f
:1005c0000082eb0005000700910188001001ba00cd
:1005d0000200e000e6ff3a000000050091018800fb
:1005e0008002780062004000e08048003559ba007f
:1005f0008301e900080032002559ba008301e900af
:10060000050032000400e000f4ff320015d9ba0002
:100610008301e900f1ff3a00000006000c02e2004d
:1006200004003d000f42ab00020032000f02ab009d
:10063000feff32000040da00feff3700889fbe0058
:1006400080047800b60fe20005003a000000eb00dd
:10065000100007008080eb000000e0000a00350079
:10066000b87d8000880078000900e00006003200b4
:1006700009004400070007008080eb000000e00054
:100680000100350088007800010078004f04be00aa
:1006900000000600800078000001eb000000e00090
:1006a00003003a0000f92100b07d88000600370001
:1006b00000192200808f500002003e00b17d8800aa
:1006c000010037000081eb00020078000000060006
:1006d000889fbe008a9fbe008c1f780083010700a0
:1006e0008a01330003866c006450e100240032006c
:1006f0006420e100270032006150e1002200320056
:100700006120e100210032008b854200eb07b1003f
:100710000134b800003ab8000804420089844a0055
:10072000013ab8000030b8008880400009014a0052
:1007300004003300000040008180480002014900ad
:100740008b05e900c909dd0083017000010032005a
:1007500013002000c814de004814dd004709de0045
:100760001200b200c808de0008847000770107009c
:1007700001f0a1000cf0a70001f0a0006c0137000f
:100780006120e1006e0132000801be000200be00df
:10079000f7ff37006150e100fcff3a0068013700c5
:1007a0000001be008f0107000470a70003f0a10044
:1007b0006509b100160032000d0035006828e1001f
:1007c00006003500f0ff2f00f1ff27000300e000d6
:1007d00013003b000100280000000500000040005d
:1007e000818048008502e900fcff3a0008003700dc
:1007f000f88f420002003c008000eb000000050082
:100800008100d1000080d3008502e800fcff3a009f
:100810000300e00002003b0060001000e0801800d0
:1008200000000600889fbe008a9fbe000105780078
:100830000100e0000400350008003c000000e0007a
:10084000200032000500370060001000e080180032
:1008500002003b0001f02c001a0037000004be002b
:100860006011b8006b0920000982cf000200390036
:100870000882cf000441b000694252000e003200ed
:1008800008003b0082817100610164008904d1008d
:100890000884d3008b05e8000442e800f9ff3a0021
:1008a000050037000804440089844c008b05e900ea
:1008b0000442e900fbff3a00240107000af0a70008
:1008c00001f0a0004f05be004f04be00000006006e
:1008d00003f0a200889fbe008a9fbe008c1f780094
:1008e00002010700090133006450e1004f003200ab
:1008f0006420e1005200320003826c0007003b00dc
:100900000905d0000306d000820f54000c065d00dc
:1009100002003900020032008901780003067800e5
:100920008582550004003d000003fd008103fd00a9
:100930008502ea008b854200840f720002003b00b2
:1009400060001000e08018006011b8000005eb00a6
:100950007a28e1000a00390006007800c75ddd0052
:10096000f707b200878075002d0037008281710083
:100970000a017800610560008180d1000080d30009
:100980008502e900f9ff3b00060440008784480027
:1009900002003b0060041400e0841c000988a300ee
:1009a000070032008a817100828171006101640058
:1009b0008904d1000884d3008b05e80017003700b4
:1009c0000978a30013003a000b00e0001300340084
:1009d0008b05e9000804440089844c000a44740033
:1009e0000978a3000d003a000b00e0000700340076
:1009f0008b05e9000804440089844c0001003a009a
:100a00000b0020000978a300f7ff32000001eb0083
:100a100002003700828171000a017800cb000700d4
:100a20000cf0a70001f0a000c10037006420e10035
:100a300002003a00838f6c00c10033000801be0041
:100a40000200be00ba003700889fbe008a9fbe0029
:100a50008c1f78000004be00e20007000478a300a9
:100a600026003a006120e1002500320009f8a300c9
:100a700025003a006420e10021003200f507b100b2
:100a80000508a300020032000000400081804800f9
:100a90006044b80003102000020020000000400065
:100aa000818048000805440089854c000a05410002
:100ab0008b8549000a0550008b85580003003300e0
:100ac0000a00be0002047400838474008301d10014
:100ad0000281d300830f7100f0ff3a008904d10036
:100ae0000884d3006001490082017800c1adde00b6
:100af000fb07b000950007008d0037000960a000db
:100b00000800be008a00370012022000a27d880083
:100b1000f0ff2f00f1ff270085003700889fbe00ff
:100b20008a9fbe008c1f780070000700770033009a
:100b300003866c006450e1002e0032006420e10066
:100b4000330032006150e1002f0032006120e100eb
:100b50003100320085855500eb07b0000900200008
:100b600008042000050037000804440089844c0074
:100b70000a0031000603430087834b000001530045
:100b800081815b00f8ff33000203be000800a00073
:100b90000804440089844c00f6ff3900c639dd00a2
:100ba0008301730001003200130020008904d1008a
:100bb0000884d3000998a300050032000800a700ac
:100bc0000300a0008904d1000884d3008b05e8004d
:100bd0008904d1000884d3000001eb000281d20017
:100be0005a00070001f0a1000cf0a70001f0a000de
:100bf0004f0037006420e100510032000801be00c0
:100c00000200be00f7ff37006120e1004c00320017
:100c10006000b800f3ff37000000200001f8270053
:100c2000f0ff37001400200083003700f4ff2f008e
:100c300081003700839f68000100e00002003d0052
:100c400060001000e08018000300e00002003d009a
:100c500060011100e0811900920007004f00e000e0
:100c600002003b0060001000e08018000000060059
:100c7000889fbe008a9fbe008c1f78001b00070063
:100c80001002200002003b00a07d88001f003700fa
:100c90008a0062006408e10002003a00a07d88003a
:100ca000270037006108e100fcff32000800be00a9
:100cb0000304780099ff070001f0a10089000700f4
:100cc00008f0a600040037000001be0091042400d3
:100cd000b0fd2000fefe070009f0a70001f0a20011
:100ce0001300370004002000530037000004be004a
:100cf0003c0007000003be000405be000200be0069
:100d000038000700844f7500000006000200be0096
:100d10006450e100050036006420e1000200360066
:100d20000968a30001003a000800be000160a000ad
:100d30004f0678004f05be004f04be0000000600bd
:100d4000f0ff2f00f1ff2700f9ff3700810020009e
:100d5000618055000b003d000b00200061fe2f005c
:100d60000100e1001d003400828171006101640016
:100d70008904d1000884d3000000e800faff3a009b
:100d80007100200061006400030070000200600038
:100d90000900320061044400e0844c000988a50089
:100da000050032008b05e8006808e10002003a0007
:100db0008904d1000884d300f20f20000258e1001a
:100dc00005003d00c75ddd00f907b20089807500b0
:100dd00008007800000006000bf827008b00780060
:100de00000000500c70ade00f107b200f50fb200ef
:100df00008003200e1cf4200020032000170a00082
:100e000024000500810f7000010032000408050075
:100e100044000500810f700002003a001400050034
:100e20008502e9000000400081c04800fcff3b0053
:100e30000170a00024000500889fbe008a9fbe00ac
:100e4000841f7800a9ff07004f00780011003300cd
:100e5000f0ff2f00838f6c0006003b000405650047
:100e60000a00a7000800370009f0a60010002000c3
:100e700008003700820f5400838f5c0003003900a4
:100e80001000200001003e000000200009f0a70033
:100e90000000ea004f05be004f04be000000e00065
:100ea000000006006022b800060220000000d0000a
:100eb0008180d2000482d2008582d2000000a0008e
:100ec0000202520083825a0003003b0002024200e9
:100ed00083824a000000a1000603e900f3ff3a0004
:100ee00000000600889fbe008a9fbe008c9fbe0047
:100ef0000004be00bbff07000800be0089067800a2
:100f00006420e10008003900040032000160a00004
:100f100012022000a27d88005300370091fc2300bc
:100f2000b0fd20004e0037000006eb0009f0a100e4
:100f300003f82300020020000800be0039ff07006c
:100f40000600340001f82300000020000801be0064
:100f5000f2fe07000004be002c0020000800be00c6
:100f600093e82300320a23002eff0700120034000a
:100f70000801be00d1fd2300703d2b0055fe070087
:100f80000005be00b3f32300f27a26000800be007d
:100f9000cffd070003f82300020020004cfe0700ed
:100fa0000801be004bfe07000a01be00dbfe070081
:100fb0000004be000c06e8000800be0001f0a1001d
:100fc000020020000398230016ff07000800be005f
:100fd000160035000801be00bdfd07000005be007b
:100fe00032cd2c0043fb23003afe0700809fbe0059
:100ff0001269280003d52b000a00be00b4fd0700cb
:10100000620f210013ef2b0032fe07000a01be0021
:10101000affd07004f01be00c0fe07000801be0083
:10102000abfd07000801be002afe07000c00e0002f
:101030000b0032000c10a70001f0a200b2fd20004e
:1010400093fc23006260e1000400320022a920002a
:1010500063f023000c10a70063f823001dfe0700b7
:101060000df0a70001f0a2004f06be004f05be0024
:101070004f04be00000006000000fa004eb89700c2
:1010800065fc07000080fa00000006000000fa007e
:101090000080fa00000006000200fa00889fbe00ef
:1010a0001b03070010002000107b880060372c0015
:1010b0004f0307004cefb700a0372c004c0307008c
:1010c0004defb700e0372c00490307004eefb700a3
:1010d00020382c00460307004fefb70060382c0083
:1010e0004303070050efb700a0382c00400307006f
:1010f00051efb700e0382c003d03070052efb70076
:1011000020392c003a03070053efb70060392c0058
:101110003703070054efb700a0392c003403070051
:1011200055efb700e0392c003103070056efb70048
:10113000203a2c002e03070057efb700603a2c002e
:101140002b03070058efb700a03a2c002803070034
:1011500059efb700e03a2c00250307005aefb7001b
:10116000203b2c00220307005befb700603b2c0004
:101170001f0307005cefb70040062000000f780057
:101180009e0078004ccfbf001f0407009e0078002f
:101190004dcfbf001c0407009e0078004ecfbf005b
:1011a000190407009e0078004fcfbf001604070007
:1011b0009e00780050cfbf00130407009e00780007
:1011c00051cfbf00100407009e00780052cfbf002f
:1011d0000d0407009e00780053cfbf000a040700eb
:1011e0009e00780054cfbf00db0407009e0078000b
:1011f00055cfbf00d80407009e00780056cfbf002f
:10120000d50407009e00780057cfbf00d204070026
:101210009e00780058cfbf00cf0407009e007800e2
:1012200059cfbf00cc0407009e0078005acfbf0002
:10123000c90407009e0078005bcfbf00c60407000a
:101240004ccfbf00370407000004be0059cfbf00d9
:10125000e80407000001be000800be001cfd0700f6
:101260004ffd0700407a880050cfbf002d040700d3
:101270000004be0056cfbf00de0407000001be0020
:101280000800be0012fd070045fd0700507a8800e7
:10129000b03b2c00d602070011002000bb03070062
:1012a000003c2c00d202070011002000b703070009
:1012b000503c2c00ce02070011002000b3030700b1
:1012c000a03c2c00ca02070011002000af03070059
:1012d000603b2c00c602070011002000ab03070092
:1012e000f03c2c00c202070011002000a7030700f9
:1012f000403d2c00be02070011002000a3030700a0
:10130000903d2c00ba020700110020009f03070047
:10131000e03d2c00b6020700110020009b030700ef
:10132000303e2c00b2020700110020009703070096
:101330004f04be000080fa00000006000000fa0022
:10134000889fbe000000eb00f07a880040798000a2
:10135000cf80de0033fd07000004be00407980002e
:10136000cf80de002ffd07000801be00de0407006d
:101370004f04be000080fa00000006000000fa00e2
:10138000889fbe0010002000f07a8800407980001d
:101390000000ea00cf80de0022fd07000004be004e
:1013a00040798000cf80de001efd07000801be00ee
:1013b000cd0407004f04be000080fa0000000600c4
:1013c0000000fa00889fbe0010002000f07a88001c
:1013d00040798000cf80de0012fd07000004be00cf
:1013e000407980000000ea00cf80de000dfd07009c
:1013f0000801be00bc0407004f04be000080fa00d4
:10140000000006000200fa00000f78001000200023
:101410009e0f100002003a00e9ff070001003700ac
:10142000d6ff07000080fa00000006001800fa004e
:10143000000f7800120798002307980031079800e2
:101440006000b80040079800510798000000eb00ca
:10145000600798006e0090009e0f50001f003d0036
:10146000be0090006e0090000080400010407800a8
:10147000604f98006e4890005e040700000f9800cf
:10148000110f98001e019000ae0190000e08900010
:101490009e0890000efd0700200f9800310f980065
:1014a0002e099000be0990002e089000be08900002
:1014b00087fc07000001be004e009000de00900097
:1014c00004fd070040079800510798006e00900047
:1014d0000000e80060079800deff37004e00900033
:1014e000de00900058fd07000080fa0000000600b2
:1014f0001000fa00000f7800110798006000b80093
:1015000020079800310798000000eb004007980082
:101510004e0090009e0f500014003d009e00900071
:101520004e0090000080400010407800204f98004e
:101530002e4890002f04070060079800710798005c
:101540006e019000fe0190002e009000be00900001
:10155000e0fc070020079800310798004e0090003b
:101560000000e80040079800e9ff37001e007800ff
:10157000cf80de00abfc07000001be002e00900013
:10158000be00900065fd07000080fa000000060024
:101590001000fa00000f78001107980000402200a8
:1015a0004197240020079800310798000000eb00c5
:1015b000400798004e0090009e0f500018003d001c
:1015c0009e0090004e009000008040001040780087
:1015d000204f98002e4890000604070060079800ee
:1015e000710798002e019000be0190006e009000df
:1015f000fe0090008bfd07000000e00004003d00ad
:101600006e009000fe0090002007980031079800bf
:101610004e0090000000e80040079800e5ff37000a
:101620002e009000be0090000080fa00000006002e
:101630001400fa00000f7800110798000040220003
:1016400041972400200798003107980000002000ef
:1016500001f82b0040079800510798000000eb00ac
:10166000600798006e0090009e0f50001d003d0026
:101670009e0090006e0090000080400010407800b6
:10168000604f98006e489000da030700000f980042
:10169000110f98002e019000be0190000e089000de
:1016a0009e0890005ffd07000000e00009003d007b
:1016b0000e0890009e0890002007980031079800bf
:1016c0006e009000cf80de0056fc070040079800b7
:1016d000510798006e0090000000e8006007980035
:1016e000e0ff37004e009000de0090000080fa001e
:1016f000000006000c00fa0054cfbf00004f780035
:1017000055cfbf001047980056cfbf002047980024
:1017100057cfbf003047980058cfbf0040479800d0
:1017200059cfbf00504798005acfbf00604798007c
:101730005bcfbf00704798008e00780080002000cb
:10174000bbff070016fc0700400798004e00900002
:101750000000e000030032004e009000e70f500050
:1017600003003a00100020005007980002003700e4
:101770000000eb00500798005e0090000080fa0027
:10178000000006001400fa0054cfbf00004f78009c
:1017900055cfbf001047980056cfbf002047980094
:1017a00057cfbf0030479800e4004700110f980062
:1017b00058cfbf009e0890008048780059cfbf00e6
:1017c0009e089000904098005acfbf009e0890005d
:1017d000a04098005bcfbf009e089000b0409800ea
:1017e0008e0078004000200069ff07004007980045
:1017f00051079800e40047004000200064ff070004
:1018000060079800710798000000eb00000f980037
:101810006e019000fe0190004e009000de009000ee
:1018200002fd07000000e00002003400100020006c
:10183000000f98000e0890000080fa0000000600db
:101840000e00fa0054cfbf00004f780055cfbf0004
:101850001047980056cfbf002047980057cfbf00d1
:101860003047980058cfbf004047980059cfbf007d
:10187000504798005acfbf00604798005bcfbf0029
:10188000704798008e0078008000200040ff07001d
:1018900040079800510798000000eb00600798008f
:1018a000f0798000cf80de00defb07000001be0083
:1018b0004e009000de009000dafc07000000e0001f
:1018c00002003d0010002000600798006e009000ac
:1018d0000080fa00000006000e00fa0054cfbf009e
:1018e000004f780055cfbf001047980056cfbf007b
:1018f0002047980057cfbf003047980058cfbf000f
:101900004047980059cfbf00504798005acfbf00ba
:10191000604798005bcfbf00704798008e0078004a
:10192000800020001aff0700400798005107980028
:101930000000eb0060079800f0798000cf80de00a7
:10194000b8fb07000001be004e009000de009000d2
:10195000b6fc07000000e000020034001000200088
:10196000600798006e0090000080fa0000000600fa
:101970000200fa000000eb00000f7800017a8000fe
:10198000307a8000808f5000020035001000200067
:10199000000f78001e0078000080fa0000000600aa
:1019a0000e00fa004ccfbf00004f780053cfbf00ad
:1019b0001047980052cfbf00204798004dcfbf007e
:1019c0003047980051cfbf00404798004ecfbf002e
:1019d000504798000000eb00300798000000eb0033
:1019e000400798004e009000e50f500015003c00a5
:1019f0004e009000000047001040780049020700a8
:101a0000500798006107980070798000cf80de0051
:101a100084fb07000001be005e009000ee00900015
:101a200082fc07000000e0000200340010002000eb
:101a3000300798004e0090000000e8004007980032
:101a4000e8ff37003e0090000080fa00000006002a
:101a50000800fa00407a80006101b900f0ff2f0011
:101a600001002000000061008180610092062900d1
:101a70000203b8000001eb000282b9000701780000
:101a800004014100930629000388b90000014100c8
:101a900082037800407a80004080de00000043002e
:101aa000407a8800507a80006101b900f0ff2f0071
:101ab00001002000000061008180610002652400b7
:101ac0000203b8000001eb000282b90007017800b0
:101ad00004014100036524000388b90000014100ae
:101ae00082037800507a80004080de0000004300ce
:101af000507a8800407a8000c000dd00507a800073
:101b0000008f40001e00780030079800107a800097
:101b10009e0f100006003500127a8000be01900072
:101b2000110009008201d8008000fd0030079800f4
:101b30003e009000100798009e009000207a8000e0
:101b4000808f500003003500130020002307980009
:101b5000020037000000eb00200798002e009000e4
:101b60000080fa00000006000000fa005e0fe200ac
:101b70000c003a008aff0700e10f500002003a0013
:101b8000fefd070012003700b1ff07000000e00073
:101b90000f00320060798000307a880008fe07006c
:101ba0000b00370072ff0700e10f500005003a00fc
:101bb000e2fd070050798000307a88000000eb00d9
:101bc000007a8800007a80000000e800007a88002f
:101bd0000080fa00000006000000fa002efd070059
:101be000d6fd07000004200059000700e10f400067
:101bf00002003200dcff0700faff370023fd070078
:101c00000000eb000080fa00000006000000fa006f
:101c10000000eb002008880041102000914078006f
:101c200000c3b30000c0700004e1b7000000eb0087
:101c30000008880090032000100888008460a90034
:101c40008c60a80005e1a8000080fa0000000600f2
:101c500000a0fe000000fa008460a9000000eb0074
:101c600000088800207180000000e80020718800d2
:101c70000080fa000080fe000040060000a0fe0088
:101c80003600f800849fbe00869fbe000000fa0068
:101c90007d0407000080fa004f03be004f02be0023
:101ca0003600f9000080fe00004006000000fa0047
:101cb000dc040700507d8000e10f400009003a007d
:101cc000160020008500200084002000031a200058
:101cd0008213200001022000400a20008604070031
:101ce0000800370016002000850020008400200036
:101cf00083132000021a2000410520000007200065
:101d00007d040700bf0407000080fa000000060001
:101d10000000fa00ee040700320507001207070072
:101d2000c9070700260a0700260b0700b7ff0700b0
:101d300013002000a2fa2000e1ff2f00f00720008e
:101d4000930b0700d9ff07000080fa00000006008f
:101d50000400fa00000f780020718000100798003e
:101d60001e0090009e0f5000030031002071800083
:101d700010079800faff3700a4ff07000000eb00ef
:101d8000207188001e00780010718800307180007a
:101d90000000e80030718800220ee20011003200dd
:101da000803e200012718000110009000200d8005e
:101db0008000fd0030718000810f50000900340068
:101dc0000000eb00307188000200200003f82300bf
:101dd0004071800051718000befa07004071880098
:101de000517188001e0090000080fa00000006007b
:101df0000400fa00000f78001e00e00003003a0023
:101e00000000eb0010079800d80037009e00780013
:101e100000c7b300914f100016003a009e00e80082
:101e200030c7b300914f100012003a009e007800b6
:101e3000638040001004e0000e003a009e80e8003d
:101e4000f0c2b300914f1000c60034009e80e8003d
:101e500070c3b300914f1000c2003c001e80e80028
:101e6000104078007c4050000080fb001007980074
:101e7000be0037009e007800c0c6b300914f10002e
:101e800016003a009e00e80030c7b300914f1000e2
:101e900012003a009e007800638040001004e000c9
:101ea0000e003a009e80e800f0c2b300914f10008f
:101eb000ac0034009e80e80070c3b300914f100066
:101ec000a8003c001e80e8001040780072405000de
:101ed0000080fb0010079800a40037009e007800e7
:101ee00060c6b300914f100016003a009e00e80053
:101ef00030c7b300914f100012003a009e007800e6
:101f0000638040001004e0000e003a009e80e8006c
:101f1000f0c2b300914f1000920034009e80e800a0
:101f200020c3b300914f10008e003c001e80e800db
:101f3000104078006d4040000080fb0010079800c2
:101f40008a0037009e007800c0c6b300914f100091
:101f50001d003a009e00e80050c6b300914f1000eb
:101f600019003a009e80e80040c6b300914f10006f
:101f700015003a009e007800648040001004e000e4
:101f800011003a001e007800e3004000f0c2b300e8
:101f9000914f1000730034001e007800e3004000f1
:101fa00090c3b300914f10006e003c001e007800fb
:101fb000e3004000a0cdb300114040000080fb00d2
:101fc00010079800690037009e00780030c6b30003
:101fd000914f10001e003a009e00e80010c6b300aa
:101fe000914f10001a003a009e80e800d0c6b3005e
:101ff000914f100016003a001e007800e3004000e8
:1020000050c6b300914f100011003a001e00780036
:10201000e400400020c7b300914f10000c003a00cc
:102020001e007800e500400010c6b300914f10007c
:1020300007003a009e007800668040001004e0002f
:1020400003003a0080022000100798004700370084
:102050009e00780010c6b300914f100041003a0076
:102060009e00e80030c6b300914f10003d003a00da
:102070009e80e80030c6b300914f100039003a004e
:102080001e007800e300400050c6b300914f1000de
:1020900034003a001e007800e4004000c0c6b300df
:1020a000914f10002f003a001e007800e50040001c
:1020b00050c6b300914f10002a003a001e0078006d
:1020c000e600400020c7b300914f100025003a0001
:1020d0001e007800e7004000f0c6b300914f1000ea
:1020e00020003a001e007800e8004000d0c6b3008f
:1020f000914f10001b003a001e007800e9004000dc
:1021000050c6b300914f100016003a001e00780030
:10211000ea00400040c7b300914f100011003a00a0
:102120001e007800eb00400050c6b300914f100035
:102130000c003a001e007800ec00400020c7b300fd
:10214000914f100007003a009e0078006d8040001b
:102150001004e00003003a0020032000100798005c
:10216000020037008000eb00110798001e0090006d
:102170000080fa00000006000000fa0040718000b4
:10218000517180000080fa00000006000400fa008f
:10219000004f7800110798001e0090000000e0003a
:1021a000030032001e009000e10f500014003a00be
:1021b00020c1b3009e4f100002003a001e009000a4
:1021c000240c070030c1b3009e4f100002003a00fb
:1021d0001e0090003e0c070090c0b3009e4f100000
:1021e0000700360010c1b3009e4f100004003e00ef
:1021f0001e80fb006a0050009e009000bb0a070092
:102200000080fa00000006000400fa00004f780089
:102210001107980030c1b3009e4f10001000360027
:10222000b1c1b3009ecf10000d003e001e80fb0028
:102230000000d00042e0200082004000100020009a
:10224000800878001e80fb000000d00041e12000e3
:10225000010040001e0190000208780012003700c3
:10226000c0c3b3009e4f10000f003600f0c3b30090
:102270009e4f10000c003e001e80fb000000d000ae
:1022800022df20008200400010002000800878003b
:102290001e80fb000000d00081df20000100400014
:1022a0001e019000020878000080fa00000006007d
:1022b0000200fa00004f780030c1b3009e4f1000ba
:1022c0000a003600b2c1b3009e4f110007003e0065
:1022d0001e80fb000000d00042e020008200400091
:1022e0000000eb00800878000c003700c0c3b3008a
:1022f0009e4f100009003600f0c3b3009e4f10003f
:1023000006003e001e80fb000000d00022df2000ff
:10231000820040000000eb00800878000080fa0096
:10232000000006000c00fa00881f7800004f7800bb
:1023300030c1b3009e4f10002f003600b1c1b30072
:102340009ecf10002c003e001e80fb000000d0003d
:1023500042e02000020040001000e00026003200b1
:10236000220ee200100032001e80fb000000d000b0
:1023700041e120000100400010007800127180004f
:10238000110009000200d800000178000100780067
:1023900030718000110009000200d8008000fd00ab
:1023a0000000e0000b003a009e80fb00400020008f
:1023b0000008b800c2df2000020440001e80fb00bd
:1023c00074005000f30d0700cf80de0015f9070000
:1023d000008cbe009e80fb00400020000008b8007a
:1023e000c2df2000020040001000be00100798006d
:1023f0002107980053003700c0c3b3009e4f100060
:102400004d003600f0c3b3009e4f10004a003e005e
:102410001e80fb000000d00021df200001004000f2
:102420001000e00044003200220ee20010003200f2
:102430001e80fb000000d00082df20000200400070
:102440001000780012718000110009000200d8000d
:10245000000178000100780030718000110009004f
:102460000200d8008000fd000000e00029003a00d2
:10247000580907009e80fb00400020000008b800bb
:1024800042d8200002014000320798001e80fb0065
:102490008000d00070c8b30080c0400000ccb30002
:1024a000540907000004fb001e80fb008000d000e0
:1024b00060c8b30080c0400000ccb3004d090700e5
:1024c0000000fb004800dd00000444006140b9004a
:1024d000d4f8070040079800510798000800e00072
:1024e00007003d0002002000037824004e00900009
:1024f000de009000f7f807004007980051079800a9
:102500004e009000de0090003e0190000089be0069
:10251000340907009e80fb00400020000008b8003e
:1025200042d82000020040001000be0010079800b2
:1025300021079800030037006000b80010079800da
:10254000210798001e009000ae0090004f04780014
:102550000080fa00000006000400fa00004f780036
:1025600011079800d0c1b3009e4f10000f00360035
:1025700050c2b3009e4f10000c003e001e80fb00b6
:102580000000d00082e42000820040001000200003
:10259000800878001e80fb000000d00081e520004c
:1025a000010040001e019000020878000080fa003f
:1025b000000006000200fa00004f7800d0c1b3000e
:1025c0009e4f10000900360050c2b3009e4f10000d
:1025d00006003e001e80fb000000d00082e42000c8
:1025e000820040000000eb00800878000080fa00c4
:1025f000000006000600fa00881f7800004f7800ef
:10260000d0c1b3009e4f10002f00360050c2b3005f
:102610009e4f10002c003e001e80fb000000d000ea
:1026200081e42000010040001000e000260032009c
:10263000220ee200100032001e80fb000000d000dd
:1026400082e5200002004000100078001271800036
:10265000110009000200d800000178000100780094
:1026600030718000110009000200d8008000fd00d8
:102670000000e0000b003a009e80fb0040002000bc
:102680000008b800c2e22000020440001e80fb00e7
:102690007e005000550d0700cf80de0061f8070076
:1026a000008cbe009e80fb00400020000008b800a7
:1026b000c2e22000020040001000be001007980097
:1026c00021079800030037006000b8001007980049
:1026d000210798001e009000ae0090004f04780083
:1026e0000080fa00000006000800fa00008fbe001b
:1026f00022079800330798001e00be0028f8070044
:10270000a20407002e009000be00900024f80700ed
:10271000db0407000080fa00000006000200fa0057
:10272000000f780010002000207688001e0078003e
:10273000307688000080fa00000006000000fa00f1
:102740000000eb00207688000080fa000000060000
:102750000400fa00881f7800c40ee200190032005d
:10276000c60ee20017003200220ee2000c0032001a
:102770003076800012718000110009000200d8003c
:10278000000178000100780030718000110009001c
:102790000200d8008000fd000000e00005003a00c3
:1027a00088ec200014050700cf80de001df807002c
:1027b000008cbe0080ec20001000be00008fbe0028
:1027c000020037006000b800008fbe001e00be008f
:1027d0004f0478000080fa00000006000400fa00b0
:1027e000881f7800c40ee2001b003200c60ee20013
:1027f00019003200220ee2000c0032003076800018
:1028000012718000110009000200d8000001780058
:102810000100780030718000110009000200d8002a
:102820008000fd000000e00006003a0088ec200077
:10283000fb040700cf80de00faf7070020049800b1
:102840003104980080ec2000b0009000200090003f
:10285000008fbe00020037006000b800008fbe008d
:102860001e00be004f0478000080fa000000060041
:102870000800fa00008fbe00220798003307980076
:102880001e00be00c6f70700df0407002e00900000
:10289000be009000c2f70700e50407000080fa00c0
:1028a000000006000400fa00004f780011079800ad
:1028b00080c2b3009e4f100004003a001e0090003a
:1028c0009076880010002000807688000080fa0052
:1028d000000006000200fa00004f780080c2b3003a
:1028e0009e4f100002003a000000eb008076880046
:1028f0000080fa00000006000400fa00004f780093
:1029000080c2b3009e4f10001a003a00d00ee200c1
:1029100018003200d20ee20016003200220ee20051
:102920000c003200907680001271800011000900c6
:102930000200d800000178000100780030718000aa
:10294000110009000200d8008000fd000000e00036
:1029500005003a0080fb2000d40c0700340d07006e
:102960000000e000fdff320080fb2000100798000f
:10297000020037000000eb00100798001e009000d6
:102980000080fa00000006000a00fa00000f78003c
:10299000110798002207980033079800507d8000a7
:1029a000e20f40000a003a00be0090004003200001
:1029b0000008b8002e019000020040000000d00086
:1029c0001e00400010407800004f98001c003700a7
:1029d000507d8000e70f40000e003a0061022000a9
:1029e0003e00900080805000400320000008b800a6
:1029f000800078002e009000008050000000d00081
:102a00001e0040007006b00010407800004f980093
:102a10000b003700310320002e0090008080500012
:102a2000700220000008b8003e0190000200400043
:102a30000000d0001e00400010407800004f9800b9
:102a40000e4890000080fb00810f20000100600014
:102a50000080fa00000006000a00fa00000f78006b
:102a6000110798002207980033079800507d8000d6
:102a7000e20f400014003a00be0090004003200026
:102a80000008b8002e019000020040000000d000b5
:102a90001e00400010407800004f9800be009000db
:102aa000400320000008b8002e0190000200400002
:102ab0000000d0001e0040000000e8001040780038
:102ac000104f980035003700507d8000e70f400020
:102ad0001b003a00610220003e0090008080500000
:102ae000400320000008b800800078002e0090000d
:102af000008050000000d0001e0040007006b000b2
:102b000010407800004f9800610220003e009000c5
:102b100080805000400320000008b800800078004a
:102b20002e009000008050000000d0001e004000e9
:102b30006006b00010407800104f98001700370072
:102b4000310320002e009000808050007002200091
:102b50000008b8003e019000020040000000d000d4
:102b60001e00400010407800004f98003103200004
:102b70002e00900080805000700220000008b800f5
:102b80003e019000020040000000d0001e00400006
:102b90000000e80010407800104f98000e489000a8
:102ba0000080fb004501dd001e4890008080fb0096
:102bb000800f2000008060004380de000040410064
:102bc0000080fb000080fa00000006000a00fa0006
:102bd000000f78001107980022079800330798002b
:102be000507d8000e20f40000b003a00be009000d4
:102bf000400320000008b8002e01900002004000b1
:102c00000000d0001e0040000000e80010407800e6
:102c1000004f98001d003700507d8000e70f4000f6
:102c20000e003a00610220003e00900080805000bb
:102c3000400320000008b800800078002e009000bb
:102c4000008050000000d0001e0040006006b00070
:102c500010407800004f98000c003700310320002e
:102c60002e00900080805000700220000008b80004
:102c70003e019000020040000000d0001e00400015
:102c80000000e80010407800004f98000e489000c7
:102c90004300dd000080fb000080fa000000060019
:102ca0000400fa00004f78001107980020c3b30019
:102cb0009e4f100004003a001e009000b07688007d
:102cc00010002000a07688000080fa0000000600b6
:102cd0000200fa00004f780020c3b3009e4f10009e
:102ce00002003a000000eb00a07688000080fa00a5
:102cf000000006001c00fa00889fbe00004f78000c
:102d000020c3b3009e4f100050003a00d40ee200e2
:102d10004e003200d60ee2004c003200220ee200dd
:102d20000c003200b07680001271800011000900a2
:102d30000200d800000178000100780030718000a6
:102d4000110009000200d8008000fd000000e00032
:102d50003b003a000e84e800670607004007980031
:102d60006a060700500798006d0607006007980084
:102d70004e009000de009000008cbe00ee0090003f
:102d8000210498006e014700808a2e0081c4230030
:102d90000089be00808a2e0081c423002001980093
:102da00031019800808a2e0081c4230040019800e0
:102db000510198006e0047001000be000004be00e4
:102dc00009f0a2000e80e80010007800cf80de003d
:102dd00094f607000001be000800be003cf60700a4
:102de000c0768800d17688006e0447000e80e80027
:102df00010009000cf80de008af607000001be00c0
:102e000028009000b800900031f60700e0768800b6
:102e1000f17688006e0447000e80e80020009000e4
:102e2000cf80de007ff607000001be004800900062
:102e3000d800900026f607000077880011778800f8
:102e400080ed2000500f98000b0037006000b800a4
:102e5000c0768800d17688006000b800e0768800ef
:102e6000f17688006000b80000778800117788004c
:102e700081ed2000510f98005e0890004f04be00c5
:102e80000080fa000000060000a0fe0086a0a90055
:102e90001421ef0000000000b15f800002c020009c
:102ea00013002000321ce10005003200080035004c
:102eb000000000000000000000000000f9ff3700e3
:102ec000a01680004800de0080587800f5ff37002b
:102ed000b15f8800fc2bec00e05f8000fe0be3009c
:102ee00003003a0010002000c05f88001fe1a90025
:102ef0000080fe00004006001200fa00000f78007b
:102f0000110798002207980033079800440798009b
:102f10005507980066079800607d8000000f9800b4
:102f2000000323008e089000808f500005003200bf
:102f3000000326008e089000808f50000b003200a6
:102f4000140037006e039000de0290004e029000e5
:102f5000be0190002e0190009e0090001e0078009f
:102f6000b70b0700700798000c0037006e03900045
:102f7000de0290004e029000be0190002e019000f3
:102f80009e0090001e007800e50c07007007980076
:102f9000020037000080eb00700798007e00900070
:102fa0000080fa00000006000600fa00000f78001a
:102fb00011079800607d800020079800000323001f
:102fc000ae009000808f5000050032000003260004
:102fd000ae009000808f50000500320007003700df
:102fe0009e0090001e0078002e0f0700030037009f
:102ff0009e0090001e007800ba1307000080fa00bf
:10300000000006000000fa00617d8000000323003c
:10301000808f500001003a00160e07000080fa0071
:10302000000006000400fa002900070065060700fa
:10303000d1a2a90040062000000f78001e00e00089
:1030400003003200000000001e0fe900fbff370004
:10305000d1a2a80040062000000f78001e00e0006a
:1030600003003200000000001e0fe900fbff3700e4
:1030700081e0a900f1048000f0002f0000806000d2
:103080000166200001004000f00488008040eb0051
:10309000c0cdb300570607002047980011c0b30009
:1030a000c0cdb30053060700304798002e40900073
:1030b0000080fb00c800dd003e4090000080fb0067
:1030c00000807000607d88000080fa00000006002b
:1030d0000000fa00c4c2a900c4e2a900c522a900e8
:1030e000c582a900c542a900c5a2a900c5c2a90000
:1030f000c5e2a900c0c2a900c0e2a900c122a9007e
:10310000c182a900c142a900c1a2a900c1c2a900ef
:10311000c1e2a900d022a900cc22a900d042a90076
:10312000cc42a900e2e2a900e302a900e802a9005a
:10313000e822a900dee2a900df02a900e402a9005a
:10314000e422a900e202a900de02a900d602a90039
:10315000d622a900d642a900d662a900d682a9002b
:10316000d6a2a900d6c2a900d6e2a900d202a9001f
:10317000d222a900d242a900d262a900d282a9001b
:10318000d2a2a900d2c2a900d2e2a900d1a2a9006c
:10319000cda2a900e842a900e862a900e442a90082
:1031a000e462a900de22a800dec2a800e4c2a800f2
:1031b000e4e2a800e502a800e522a800d302a800e6
:1031c000d322a800d342a800d362a800d382a800cb
:1031d000d3a2a800d3c2a800d3e2a8000080fa00be
:1031e000000006000000fa000000eb0080088800e4
:1031f0000111200091407800f0ccb30000c06000c5
:1032000010e1b7000000eb0030088800205c2000cf
:103210006008880084c0a9008cc0a80011e1a80043
:103220000080fa00000006000000fa0011e1a90089
:103230000080fa00000006000800fa00000f780085
:1032400011079800707d8000200798002e009000e4
:103250000000e0000b0032002e00900030009000d3
:103260009e0f500003003a00110020003107980023
:103270001f0037002e0090004000900020079800ab
:10328000f2ff3700a000200023f407002007980079
:103290002e0090000000e00002003a001000200024
:1032a00048f407002e0090009e009000010878006e
:1032b000ae0090000000eb0090009800ae0090007f
:1032c00010c0b300c04098002e0090009e0078000f
:1032d000310098002e009000717d80004100980020
:1032e0002e009000707d88001100200031079800aa
:1032f0003e0090000080fa00000006000800fa007e
:10330000000f78000000eb0010079800707d80002f
:10331000200798002e0090000000e0001a00320004
:103320002e009000300090009e0f500010003a00d8
:103330001e0090000000e000050032009e0090009a
:103340002e00900040009000c0009800030037005d
:103350002e00900040009000707d88002e009000ac
:103360002ef40700100020003007980008003700f6
:103370002e009000100798002e0090004000900052
:1033800020079800e3ff3700200020003007980056
:103390003e0090000080fa00000006000800fa00dd
:1033a000000f780011079800707d800020079800ba
:1033b0002e0090000000e0000e0032002e00900071
:1033c000300090009e0f500006003a002e00900042
:1033d0009e0090000108780010002000300798003f
:1033e000060037002e009000400090002007980053
:1033f000efff370021002000310798003e009000c9
:103400000080fa00000006000600fa00000f7800b5
:10341000707d8000100798001e0090000000e00002
:103420000e0032001e009000300090009e0f5000f1
:1034300006003a009e0090000000eb00900098000b
:103440001000200020079800060037001e009000a2
:103450004000900010079800efff37002000200088
:10346000200798002e0090000080fa00000006005f
:103470000600fa00000f7800707d800010079800a9
:103480001e0090000000e0000e0032001e009000c0
:10349000300090009e0f500006003a009e00900001
:1034a0000040eb00c040980010002000200798006a
:1034b000060037001e0090004000900010079800a2
:1034c000efff370020002000200798002e0090001a
:1034d0000080fa00000006000600fa00000f7800e5
:1034e000707d8000100798001e0090000000e00032
:1034f0000e0032001e009000300090009e0f500021
:1035000006003a009e00900010c0b300c040980032
:103510001000200020079800060037001e009000d1
:103520004000900010079800efff370020002000b7
:10353000200798002e0090000080fa00000006008e
:103540003600f800809fbe00829fbe00849fbe00b0
:10355000869fbe000200fa00707d8000000f780098
:1035600084c0a9001e00e0001c0032001e0078008c
:1035700040409000e14f500014003a001e007800d7
:103580001000e000110032009e0078001e0078005c
:10359000100090000000e800900098001e017800e4
:1035a0001e0078009000e90012009000810f50008a
:1035b000060036001e007800300090000000010078
:1035c0009e0078000000eb00900098001e0078003c
:1035d00040009000000f7800e2ff37000080fa0002
:1035e0004f03be004f02be004f01be004f00be00a1
:1035f0003600f900004006000400fa00880fe200df
:103600001e003200e17b800080da2f00808f5000a6
:103610001a003500e17b800080252000808f50005b
:1036200016003c00d602a900d622a900d642a90065
:10363000d662a9000000eb00407c8800e27b80009d
:10364000020f78001e0178000200e00003003d0038
:103650001e0178000201ea00020f780000712200ca
:103660001e017800110009000200d800ef00500090
:10367000c0af210049ff07004b0037007c0fe2007c
:103680000b003400207c80000000e800207c8800d3
:10369000007c80000000e900007c8800800fe200d0
:1036a0000e003d0030002000007c88000b00370039
:1036b000207c80000000e900207c8800007c8000e5
:1036c0000000e800007c8800007c8000e30f5000d0
:1036d000020034000000eb00007c8800007c8000c9
:1036e000100798001e019000e10f510013003200f6
:1036f0001e009000e10f500004003c001e019000ed
:103700000200e000080032001a0037001e0090009e
:10371000e20f50000e0032001e019000e30f510036
:103720001000320013003700d602a900d622a800ec
:10373000d642a900d662a8000e003700d602a90022
:10374000d622a800d642a800d662a90009003700f8
:10375000d602a800d622a900d642a800d662a900a7
:1037600004003700d602a800d622a900d642a9003c
:10377000d662a800e17b800080da2f00808f5000a5
:1037800009003500e17b800080252000808f5000fb
:1037900005003c0010002000407c8800f100200063
:1037a000c0af2100fdfe07000080fa000000060007
:1037b0000400fa008a0fe2001e003200f17b800054
:1037c00080da2f00808f50001a003500f17b8000d6
:1037d00080252000808f500016003c00d682a90072
:1037e000d6a2a900d6c2a900d6e2a9000000eb002b
:1037f000507c8800f27b8000020f78001e01780068
:103800000200e00003003d001e0178000201ea0012
:10381000020f7800007122001e01780011000900db
:103820000200d800ef00500080bd2100dbfe070041
:103830004b0037007e0fe2000b003d00307c800023
:103840000000e900307c8800107c80000000e90066
:10385000107c8800820fe2000e003d003000200046
:10386000107c88000b003700307c80000000e800ee
:10387000307c8800107c80000000e800107c88000c
:10388000107c8000e30f5000020034000000eb00c9
:10389000107c8800107c8000100798001e019000aa
:1038a000e10f5100130032001e009000e10f5000a4
:1038b00004003c001e0190000200e00008003200fd
:1038c0001a0037001e009000e20f50000e00320078
:1038d0001e019000e30f510010003200130037006a
:1038e000d682a900d6a2a800d6c2a900d6e2a80016
:1038f0000e003700d682a900d6a2a800d6c2a80022
:10390000d6e2a90009003700d682a800d6a2a900f5
:10391000d6c2a800d6e2a90004003700d682a800cb
:10392000d6a2a900d6c2a900d6e2a800f17b8000e9
:1039300080da2f00808f500009003500f17b800075
:1039400080252000808f500005003c0010002000e2
:10395000507c8800f100200080bd21008ffe070010
:103960000080fa00000006000000fa008000eb0072
:10397000c0af210030fe07008000eb0080bd2100b9
:103980002dfe07000080fa00000006000200fa0089
:10399000000f78001e00e0000a003a000000eb0073
:1039a000e07b88008000eb00c0af21007bfe0700b9
:1039b000d602a900d622a900d642a900d662a90043
:1039c0002d00370080c12f009e0f10000a003d001f
:1039d00080c12f00e07b8800008f2d00e27b8000fb
:1039e000110009000200d8008000fd00c0af2100d6
:1039f0006afe070020003700803e20009e0f100066
:103a00000a003400803e2000e07b88000071220024
:103a1000e27b8000110009000200d8008000fd0058
:103a2000c0af21005dfe0700130037001e007800c4
:103a3000e07b88001e00e00008003d00008f2d00a4
:103a40001e017800110009000200d8008000fd006e
:103a5000c0af210051fe07000700370000712200af
:103a60001e017800110009000200d8008000fd004e
:103a7000c0af210049fe07000080fa0000000600e8
:103a80000200fa00000f78001e00e0000a003a0071
:103a90000000eb00f07b88008000eb0080bd21007f
:103aa0003efe0700d682a900d6a2a900d6c2a90070
:103ab000d6e2a9002d00370080c12f009e0f100014
:103ac0000a003d0080c12f00f07b8800008f2d0090
:103ad000f27b8000110009000200d8008000fd0088
:103ae00080bd21002dfe070020003700803e200011
:103af0009e0f10000a003400803e2000f07b8800fa
:103b000000712200f27b8000110009000200d80041
:103b10008000fd0080bd210020fe0700130037005b
:103b20001e007800f07b88001e00e00008003d00c9
:103b3000008f2d001e017800110009000200d8003e
:103b40008000fd0080bd210014fe07000700370043
:103b5000007122001e017800110009000200d80047
:103b60008000fd0080bd21000cfe07000080fa00ef
:103b7000000006000800fa00000f78001107980006
:103b80001e007800200798002e0190000200e0003f
:103b900003003d002e0090000000ea00200798007e
:103ba0001e019000320798003e0090000000e000e7
:103bb00003003d003e0190000201ea003207980038
:103bc0002e0090003e01900082004000803e2000c8
:103bd000808f500006003c001e0090001e00100068
:103be0006aff07001e0090001e004000a4ff0700af
:103bf0000080fa00000006000000fa00207c80002f
:103c00000080fa00000006000200fa00000f7800b1
:103c10001e007800207c88000080fa00000006006a
:103c20000000fa00307c80000080fa0000000600ee
:103c30000200fa00000f78001e007800307c880037
:103c40000080fa00000006000000fa000000eb000f
:103c5000001588000000eb00101588000000eb0044
:103c6000201588000000eb0030158800a802a8008d
:103c7000a822a800a842a900a862a900a882a900b9
:103c8000a8a2a900a8c2a900a8e2a900a902a900a7
:103c9000a922a900a942a900a962a900a982a90094
:103ca000a9a2a900a9c2a900a9e2a900aa02a90083
:103cb000aa22a900aa42a800aa62a800aa82a80073
:103cc000aaa2a900aac2a900aae2a900ab02a9005f
:103cd000ab22a900ab42a900ab62a900ab82a9004c
:103ce000aba2a900abc2a900abe2a900112a200037
:103cf00091407800c0cfb30000c06000a1e2b700df
:103d0000a042a800012a20009140780000ceb30014
:103d100000c07000a0e2b700212a20009140780086
:103d200030ccb30000c060000034a000a2e2b700b5
:103d3000a342a800512a20009140780000ceb30091
:103d400000c060000004a000a5e2b700412a2000e6
:103d50009140780000ccb30000c0600071c2b30095
:103d600001407000a4e2b7008560a9008d60a80042
:103d7000a1e2a80000000000417d800000032000b7
:103d8000808f5000fbff36000080fa000000060024
:103d9000809fbe00821f78000a00fa008560a9009b
:103da000c001200050158800212a20009140780091
:103db00030ccb30000c060000034a000a2e2b70025
:103dc000412a20009140780000ccb30000c0600080
:103dd00071c2b30001407000a4e2b700d0c3b300c9
:103de0005048e3000f003a00c00f20005015880033
:103df000212a20009140780030ccb30000c0600040
:103e00004041b300a2e2b700412a2000914078006f
:103e100000ccb30000c060003041b300a4e2b700a2
:103e20005e003700e0c3b3005048e3002c003a00c6
:103e3000212a20009140780030ccb30000c06000ff
:103e40000044a000a2e2b700412a2000914078007f
:103e500000ccb30000c060007041b300a4e2b70022
:103e600051c8bf000080fb00100798001e009000a2
:103e7000e10f5000110032009e009000e18f5000d1
:103e800004003c001e0190000200e0000800320027
:103e9000420037001e009000e20f50000a0032007e
:103ea0009e009000e38f50000a0032003b00370074
:103eb000c01121005015880038003700c0212200b1
:103ec0005015880035003700c04124005015880087
:103ed00032003700c0812800501588002f003700bd
:103ee0000085200022c0b300904f11002b003a0043
:103ef000212a20009140780030ccb30000c060003f
:103f00000044a000a2e2b700412a200091407800be
:103f100000ccb30000c060007041b300a4e2b70061
:103f200051c8bf000080fb00200798002e009000c1
:103f3000e10f500011003200ae009000e18f500000
:103f400004003c002e0190000200e0000800320056
:103f5000120037002e009000e20f50000a003200dd
:103f6000ae009000e38f50000a0032000b003700d3
:103f7000c01121005015880008003700c021220020
:103f80005015880005003700c041240050158800f6
:103f900002003700c081280050158800002820004a
:103fa000000f7800307d80000000d00022852000c6
:103fb000820040001e007800900878001e8fe80004
:103fc000307d80000000d000a291200082004000df
:103fd0001e007800900878001e8fe800307d800079
:103fe0000000d000229e2000820040001e007800c9
:103ff000900878001e8fe80061fa20001100780018
:10400000000178000000e800800878002006200009
:10401000800f5100020036000000eb00307d880068
:10402000e0c3b3005048e3001f003a00407d800029
:104030000000d000a2aa2000820040001e007800ec
:10404000900878001e8fe800407d80000000d000be
:10405000e2b02000820040001e0078009008780046
:104060001e8fe800407d80000000d00022b72000b5
:10407000820040001e0078009008780081fa20003d
:1040800011007800000178000000e8008008780046
:1040900000032000800f5100810036000000eb007b
:1040a000407d88007e003700f0c3b3005048e30035
:1040b00038003a0051c8bf000080fb00300798006c
:1040c0003e009000e10f500017003200be0090004b
:1040d000e18f500004003c003e0190000200e0002f
:1040e000080032006e0037003e009000e20f5000e2
:1040f00016003200be009000e38f50001c0032001a
:10410000670037001e00780010007800b05e88005d
:104110001e8fe8001e00780010007800f05e880016
:10412000e2e2a8005e0037001e0078001000780070
:10413000c05e88001e8fe8001e0078001000780026
:10414000005f8800e302a800550037001e007800d9
:1041500010007800d05e88001e8fe8001e007800f6
:1041600010007800105f8800e802a8004c003700bb
:104170001e00780010007800e05e88001e8fe800c6
:104180001e00780010007800205f8800e822a80058
:10419000430037000085200032c0b300904f11006b
:1041a0003f003a0051c8bf000080fb004007980064
:1041b0004e009000e10f500019003200ce00900038
:1041c000e18f500004003c004e0190000200e0002e
:1041d00008003200320037004e009000e20f50001d
:1041e0001a003200ce009000e38f5000220032000f
:1041f0002b0037001e00780010007800305f880028
:104200001e8fe8001e00780010007800705f8800a4
:10421000e2e2a90010c0b30051e8b7002000370067
:104220001e00780010007800405f88001e8fe800b4
:104230001e00780010007800805f8800e302a9006b
:1042400020c0b30051e8b700150037001e00780009
:1042500010007800505f88001e8fe8001e00780074
:1042600010007800905f8800e802a90030c0b30019
:1042700051e8b7000a0037001e00780010007800ef
:10428000605f88001e8fe8001e0078001000780034
:10429000a05f8800e822a9000040eb0051e8b700c9
:1042a0000185200011407800004178000040e800be
:1042b00080487800f0c3b300804f51000200360000
:1042c0000040eb0050e8b7000080fa004f01780092
:1042d0004f00be00004006000400fa00000f780006
:1042e000200020009e0f10000b003e009e00780072
:1042f000200320000008b800427d8000020040003a
:104300000000d000a1aa20000100400010007800a9
:104310001007980002003700a0292000100798001d
:104320001e0090000080fa00000006000c00fa0059
:10433000000f7800110798006000b800200798006f
:1043400031079800200020009e0f100031003e0031
:104350001e0090000000e0002e0032009e00900041
:1043600020032000808f50002a003e000000eb0058
:1043700040079800417d80001e00900000805000a2
:104380003003b00022032000110009000280d80091
:104390008000fd0050079800ce0090001e009000a5
:1043a000808f50001b0031009e0078002003200009
:1043b0000008b8005e019000020040000000d0003c
:1043c000a1aa200001004000100078006101b9009e
:1043d0002e009000be009000000041008180490046
:1043e00020079800310798004e0090000000e80078
:1043f000400798005e0090000000e80022032000c3
:10440000110009000200d8008000fd00500798004c
:10441000e1ff37001e0090006101b8002e009000ff
:10442000be00900003f207000080fa0000000600c2
:104430000000fa00510020000000eb00bbff070065
:1044400080007800307b800000805000507b880026
:104450005100200010002000b4ff07008000780009
:10446000407b800000805000607b8800510020006d
:1044700020002000adff070080007800807d8000d4
:1044800000805000707b88000080fa000000060069
:104490000000fa00889fbe00e5ff0700517b800006
:1044a000507b80000089b900617b8000607b8000c8
:1044b0000088b9000201400083814800717b8000c0
:1044c000707b80000088b9000200400083804800b3
:1044d000d4f007005cf10700807b8800917b8800a6
:1044e000517b8000507b80000089b900617b800097
:1044f000607b80000088b900020040008380480093
:10450000c8f0070050f107000004be00707b800077
:10451000cf80de00c3f007000801be00d4f1070021
:10452000c20923005326240069f007000001be00e1
:1045300000002000412b2400e5f00700c07b88002c
:10454000d17b880002002000030a2400c07b800089
:10455000d17b8000b3f107000000e00004003d00c3
:104560006000b800a07b8800b17b88001100370094
:10457000607b8000cf80de00aaf007000004be0050
:10458000507b8000cf80de00a6f007000801be004f
:10459000b7f10700c2092300532624004cf007009e
:1045a0000200200043332400caf00700a07b8800eb
:1045b000b17b88004f04be000080fa0000000600b6
:1045c0000000fa00210320000000eb0057ff070065
:1045d000307b8800210320001000200053ff0700db
:1045e000407b88000080fa00000006000c00fa0002
:1045f000881f780000047800a5ff0700807b8000fa
:10460000917b8000008fbe00a27b8000b37b800086
:104610002207980033079800c07b8000d17b800080
:1046200040079800510798008e0078000800780035
:104630001101be000288be0064004000e48040001a
:104640001101be000288be0064004000e48040000a
:104650001101be000288be00080078004f047800f7
:104660000080fa00000006000000fa0088ff070042
:10467000c07b8000d17b80000080fa000000060033
:104680000000fa0082ff0700a07b8000b17b800061
:104690000080fa00000006000000fa007cff07001e
:1046a000807b8000917b80000080fa000000060083
:1046b0000600fa00881f7800000478005cff0700fd
:1046c000507b8000000f7800617b8000110798000c
:1046d000707b8000200798001e00be00008cbe008a
:1046e000ae00900021049800080078004f04780084
:1046f0000080fa00000006000000fa004cff0700ee
:10470000507b80000080fa00000006000000fa00e4
:1047100047ff0700607b80000080fa000000060071
:104720000000fa0042ff0700707b80000080fa0062
:10473000000006000a00fa006000b800008fbe000a
:10474000cfff0700008fbe00207b8000cf80de00ff
:1047500034f007001e01be005df0070010f00700f6
:10476000200798002e0090000000e00003003d00ac
:10477000ae0090008100ea00210798002e01900011
:104780006110b90027f0070002002000030a24008e
:1047900026f107000000e00088003400a2020700b4
:1047a0000000eb003007980002002c00833a240040
:1047b0001e00be001df107000000e00002003400f2
:1047c00011002000310798000001eb00420798001b
:1047d00002002000431b24001e00be0011f1070050
:1047e0000000e00002003c0010002000400798009c
:1047f000be0090004e019000028070000000e000ba
:104800000800320002002800634224001e00be009f
:1048100034f107000000e00002003200c4c2a8002a
:104820006300370002002000431b24001e00be006e
:10483000fef007000000e000080034000200200045
:10484000732824001e00be00f6f007000000e00000
:1048500002003c00c5e2a80055003700020020001d
:10486000732824001e00be00f0f007000000e000e6
:104870000800340002002000132e24001e00be0099
:10488000e8f007000000e00002003c00c5c2a800fc
:104890004700370002002000132e24001e00be0037
:1048a000e2f007000000e0000800340002002800e9
:1048b000d33124001e00be00daf007000000e00043
:1048c00002003c00c5a2a800390037000200280001
:1048d000d33124001e00be00d4f007000000e00029
:1048e0000800340002002800a33424001e00be008b
:1048f000ccf007000000e00002003c00c542a80028
:104900002b00370002002800a33424001e00be0044
:10491000c6f007000000e000080034000200280094
:10492000733724001e00be00bef007000000e00048
:1049300002003c00c582a8001d00370002002800cc
:10494000733724001e00be00b8f007000000e0002e
:104950000800340002002400233924001e00be0099
:10496000b0f007000000e00002003c00c522a800f3
:104970000f00370002002400233924001e00be006f
:10498000aaf007000000e0000800340002002c003c
:10499000833a24001e00be00a2f007000000e000e1
:1049a00002003c00c4e2a800010037001e0207001c
:1049b0001e00be007aef0700207b88000080fa000e
:1049c000000006000000fa008f0d07000080fa00ca
:1049d000000006000000fa00cc0d07000080fa007d
:1049e000000006000000fa00ce0d07000080fa006b
:1049f000000006000400fa00004f780011479800fc
:104a00000040eb00204798002e4090000004e0009a
:104a10002b003a0010c0b30020479800c70d0700d4
:104a2000804078002e4090000140600020479800b0
:104a30001e407800050f0700804078002e4090004f
:104a400001406000204798001e409000ff0e0700c4
:104a5000804078002e409000014060002047980080
:104a6000da0d0700804078002e4090000140600081
:104a7000204798001e40e800f40e070080407800b0
:104a80002e409000014060002047980063004700de
:104a90008a0e0700804078002e40900001406000a0
:104aa00020479800460e0700ec0d07002e409000ae
:104ab0000004e00002003a00700d0700d2ff37004a
:104ac0003e4090000000fb000080fa00000006005d
:104ad0000400fa00004f7800114798002247980020
:104ae0000040eb00304798003e4090000004e0009a
:104af00023003a0010c0b300304798008f0d070024
:104b0000804078003e4090000140600030479800af
:104b10001e407800cd0e0700804078003e40900097
:104b200001406000304798001e409000c70e07000b
:104b3000804078003e40900001406000304798007f
:104b40002e409000c10e0700804078003e4090004b
:104b50000140600030479800c00d07008040780099
:104b60003e40900001406000304798003e40900079
:104b70000004e00002003a00400d0700daff3700b1
:104b80003e4090000000fb000080fa00000006009c
:104b90003200f800900188006118e1000400320042
:104ba0007018e10002003200f0ff2f000300370010
:104bb0003119ba008301e900fdff3a003200f90023
:104bc00000000600849fbe004220a9004404240087
:104bd0006110e1000a003200540424007010e1006a
:104be0000700320064042400f5ff2f000510e100e7
:104bf00003003200f0ff2f004f02be00000006004d
:104c00003200f800203b8800113b8800043b8800fc
:104c10004200f800000e20004220b700500520009e
:104c2000303b8800a00a2000303b880061e7a800e4
:104c3000000000000000000061e7af00feff370049
:104c40000000eb004200f9003200f9004f02be0004
:104c500000000600841f78004220a90044002400c0
:104c60006118e10006003200540024007018e100d1
:104c7000030032004f027800f0ff2f000000060012
:104c80003200f80091018800821f78003019bb00c3
:104c90008301e900fdff3a00213b88004f017800c5
:104ca000123b8800043b88004200f800000e200000
:104cb0004220b70050052000303b8800a00a2000a9
:104cc000303b880061e7a800000000000000000001
:104cd00061e7af00feff37000000eb004200f90083
:104ce0003200f9004f027800000006000600fa00ca
:104cf000000f7800110798001e0078002007980028
:104d00002e009000e30f5000640032002e0090004f
:104d1000e30f500007003e002e009000e10f50000e
:104d20002d0032002e009000e10f50003f003e00a9
:104d30000d0037002e009000e50f50008f0032006c
:104d40002e009000e40f5000700036002e009000fe
:104d5000e60f5000a50032002e009000e70f500033
:104d6000be003200d20037001e009000e10f50005c
:104d70000f003600c4c2bf000080fb004600de000a
:104d80000080fb00610060000000a2006140600044
:104d90004601dd00412c200091407800f0cbb300ab
:104da00000c0600002407000c4e2b7001c01370080
:104db0002e409000614060004601dd00412c200043
:104dc00091407800f0cbb30000c06000024070005a
:104dd000c4e2b700120137001e009000e10f50003e
:104de0000b003600c4c2bf000080fb004700de009d
:104df0000080fb000000a200c700dd00c4c2bf00ad
:104e00000074a10001407000c4e2b7000401370043
:104e10002e409000c700dd00c4c2bf000074a10096
:104e200001407000c4e2b700fd0037001e00900092
:104e3000e10f50000f003600c5c2bf000080fb002c
:104e40000000d1000080fb00610060000000a200b3
:104e5000614060000041d000512c2000914078005a
:104e6000d0cfb30000c0600002407000c5e2b700c0
:104e7000eb0037002e409000614060000041d00000
:104e8000512c200091407800d0cfb30000c06000ca
:104e900002407000c5e2b700e10037001e0090003c
:104ea000e10f50000f003600c5c2bf000080fb00bc
:104eb0004400de000080fb00610060000000a200f2
:104ec000614060004401dd00512c200091407800d9
:104ed000f0ceb30000c0600002407000c5e2b70031
:104ee000cf0037002e409000614060004401dd009b
:104ef000512c200091407800f0ceb30000c060003b
:104f000002407000c5e2b700c50037001e009000e7
:104f1000e10f50000f003600c5c2bf000080fb004b
:104f20004200de000080fb00610060000000a20083
:104f3000614060004201dd00512c2000914078006a
:104f4000b0cfb30000c0600002407000c5e2b700ff
:104f5000b30037002e409000614060004201dd0048
:104f6000512c200091407800b0cfb30000c0600009
:104f700002407000c5e2b700a90037001e00900093
:104f8000e10f50000f003600c5c2bf000080fb00db
:104f90004500de000080fb00610060000000a20010
:104fa000614060004501dd00512c200091407800f7
:104fb000f0cdb30000c0600002407000c5e2b70051
:104fc000970037002e409000614060004501dd00f1
:104fd000512c200091407800f0cdb30000c060005b
:104fe00002407000c5e2b7008d0037001e0090003f
:104ff000e10f50000f003600c5c2bf000080fb006b
:105000004600de000080fb00610060000000a2009e
:10501000614060004601dd00512c20009140780085
:10502000f0cbb30000c0600002407000c5e2b700e2
:105030007b0037002e409000614060004601dd009b
:10504000512c200091407800f0cbb30000c06000ec
:1050500002407000c5e2b700710037001e009000ea
:10506000e10f50000b003600c5c2bf000080fb00fe
:105070004700de000080fb000000a200c700dd004a
:10508000c5c2bf000074a10001407000c5e2b700b6
:10509000630037002e409000c700dd00c5c2bf008e
:1050a0000074a10001407000c5e2b7005c00370049
:1050b0002e409000c700dd00c5c2bf000074a100f3
:1050c00001407000c5e2b700c5c2bf000080fb0010
:1050d0004700de000080fb00614060004601dd000b
:1050e000512c200091407800f0cbb30000c060004c
:1050f00002407000c5e2b700c5c2bf000080fb00df
:105100004600de000080fb0061006000614060003e
:105110004501dd00512c200091407800f0cdb30016
:1051200000c0600002407000c5e2b700c5c2bf0009
:105130000080fb004500de000080fb006100600095
:10514000614060004201dd00512c20009140780058
:10515000b0cfb30000c0600002407000c5e2b700ed
:10516000c5c2bf000080fb004200de000080fb00e3
:1051700061006000614060004401dd00512c2000ae
:1051800091407800f0ceb30000c060000240700093
:10519000c5e2b700c5c2bf000080fb004400de00ce
:1051a0000080fb0061006000614060000041d000b1
:1051b000512c200091407800d0cfb30000c0600097
:1051c00002407000c5e2b700c5c2bf000080fb000e
:1051d0000000d1000080fb0061006000c700dd001e
:1051e000c4c2bf000074a10001407000c4e2b70057
:1051f000c4c2bf000080fb004700de000080fb004f
:10520000614060004601dd00412c200091407800a3
:10521000f0cbb30000c0600002407000c4e2b700f1
:105220000080fa00000006000000fa00c4c2a900d5
:10523000c4e2a900c522a900c582a900c542a900ef
:10524000c5a2a900c5c2a900c5e2a9000080fa0054
:10525000000006000200fa00000f78001000200095
:105260009e0f10000f003600d0c2bf000080fb0070
:105270004200de000080fb00610060000000a20030
:10528000614060004201dd00012d20009140780066
:10529000b0cfb30000c0600002407000d0e2b700a1
:1052a000090037009e40780061c060004201dd00c7
:1052b000012d200091407800b0cfb30000c0600005
:1052c00002407000d0e2b7000080fa000000060043
:1052d0000200fa00000f7800100020009e0f10005e
:1052e0000f003600d0c2bf000080fb000000d100dc
:1052f0000080fb00610060000000a20061406000cf
:105300000041d000012d200091407800d0cfb300a3
:1053100000c0600002407000d0e2b7000900370012
:105320009e40780061c060000041d000012d200047
:1053300091407800d0cfb30000c060000240700000
:10534000d0e2b7000080fa00000006000000fa007a
:10535000c4c2bf000080fb004600de000080fb00ee
:10536000610060000080ea00614060004601dd00ed
:10537000412c200091407800f0cbb30000c06000c9
:1053800002407000c4e2b700c4c2bf000080fb004e
:105390004700de000080fb000080ea00c700dd005f
:1053a000c4c2bf000074a10001407000c4e2b70095
:1053b000c5c2bf000080fb000000d1000080fb00e0
:1053c000610060000080ea00614060000041d000a0
:1053d000512c200091407800d0cfb30000c0600075
:1053e00002407000c5e2b700c5c2bf000080fb00ec
:1053f0004400de000080fb00610060000080ea00e5
:10540000614060004401dd00512c20009140780093
:10541000f0ceb30000c0600002407000c5e2b700eb
:10542000c5c2bf000080fb004200de000080fb0020
:10543000610060000080ea00614060004201dd0020
:10544000512c200091407800b0cfb30000c0600024
:1054500002407000c5e2b700c5c2bf000080fb007b
:105460004500de000080fb00610060000080ea0073
:10547000614060004501dd00512c20009140780022
:10548000f0cdb30000c0600002407000c5e2b7007c
:10549000c5c2bf000080fb004600de000080fb00ac
:1054a000610060000080ea00614060004601dd00ac
:1054b000512c200091407800f0cbb30000c0600078
:1054c00002407000c5e2b700c5c2bf000080fb000b
:1054d0004700de000080fb000080ea00c700dd001e
:1054e000c5c2bf000074a10001407000c5e2b70052
:1054f0000080fa00000006000000fa00c4c2bf00ed
:105500000080fb004600de000080fb0061006000c0
:105510000080ea00614060004601dd00412c20006f
:1055200091407800f0cbb30000c0600002407000f2
:10553000c4e2b7000080fa00000006000000fa0094
:10554000c4c2bf000080fb004700de000080fb00fb
:105550000080ea00c700dd00c4c2bf000074a100e3
:1055600001407000c4e2b7000080fa0000000600ad
:105570000000fa00c5c2bf000080fb000000d1009f
:105580000080fb00610060000080ea006140600074
:105590000041d000512c200091407800d0cfb300c2
:1055a00000c0600002407000c5e2b7000080fa0051
:1055b000000006000000fa00c5c2bf000080fb002a
:1055c0004400de000080fb00610060000080ea0013
:1055d000614060004401dd00512c200091407800c2
:1055e000f0ceb30000c0600002407000c5e2b7001a
:1055f0000080fa00000006000000fa00c5c2bf00eb
:105600000080fb004200de000080fb0061006000c3
:105610000080ea00614060004201dd00512c200062
:1056200091407800b0cfb30000c06000024070002d
:10563000c5e2b7000080fa00000006000000fa0092
:10564000c5c2bf000080fb004500de000080fb00fb
:10565000610060000080ea00614060004501dd00fb
:10566000512c200091407800f0cdb30000c06000c4
:1056700002407000c5e2b7000080fa00000006009a
:105680000000fa00c5c2bf000080fb004600de003b
:105690000080fb00610060000080ea006140600063
:1056a0004601dd00512c200091407800f0cbb30082
:1056b00000c0600002407000c5e2b7000080fa0040
:1056c000000006000000fa00c5c2bf000080fb0019
:1056d0004700de000080fb000080ea00c700dd001c
:1056e000c5c2bf000074a10001407000c5e2b70050
:1056f0000080fa00000006000200fa00000f7800a7
:105700009e007800609a2200cbf607000080fa0025
:10571000000006000000fa00609a2200f7f6070079
:105720000080fa00000006000200fa00000f780076
:105730001e00e000030035009e007800609a220001
:1057400016f707000080fa00000006000000fa00cb
:10575000944fe2000b003a008000eb007000200044
:1057600062fd070094cfbf000080fb001100200005
:105770005efd070094cfbf000040e80094efb70043
:105780001c00370040f9200071c0b30090cf10001a
:105790000c003a0094cfbf000080fb000000e9003d
:1057a0008000eb0051fd070094cfbf000080fb009c
:1057b000110020004dfd07000040eb0094efb70002
:1057c0000c00370094cfbf000080fb000000e90010
:1057d0008000eb0045fd070094cfbf000080fb0078
:1057e0001100200041fd070094cfbf000040e800f9
:1057f00094efb7000080fa00000006000200fa00f3
:1058000095cfbf000080fb00000f78001e007800dd
:10581000e20f50001c0032009e007800e28f500022
:1058200007003c001e0078000000e0000b00320082
:105830009e007800e18f50000c00320023003700fa
:105840001e007800e30f5000160032009e00780022
:10585000e48f50001a0032001c00370021002000a5
:105860000000eb0021fd0700180037002100200098
:10587000100020001dfd0700210020007000200006
:105880001afd070011003700210020002000200031
:1058900016fd0700210020006000200013fd070016
:1058a0000a00370021002000300020000ffd070013
:1058b00021002000500020000cfd070003003700ed
:1058c000210020004000200008fd070050f92000c2
:1058d00031c0b30090cf100004003e0095cfbf0050
:1058e0000040e80095efb700020037000040eb00f1
:1058f00095efb7000080fa00000006000000fa00f3
:10590000964fe2000e003a00b24fe2000c00320067
:1059100010c0b30096efb7008000eb000000eb0072
:10592000f2fc070096cfbf000080fb0011002000b2
:10593000eefc07000040eb00b2efb7002b00370091
:10594000964fe2000e003a00b24fe2000c003a001f
:1059500070c0b30096efb7008000eb000000eb00d2
:10596000e2fc070096cfbf000080fb001100200082
:10597000defc070010c0b300b2efb7001b00370019
:1059800060f9200071c0b30090cf10000a003a0007
:105990000040eb0096efb7008000eb0070002000a5
:1059a000d2fc070096cfbf000080fb001100200052
:1059b000cefc07000d00370060f9200011c0b300d5
:1059c00090cf100009003a000040eb0096efb700be
:1059d0008000eb0010002000c4fc070096cfbf0041
:1059e0000080fb0011002000c0fc07000080fa00ce
:1059f000000006000200fa0097cfbf000080fb0005
:105a0000000f78001e007800e10f500015003200f2
:105a10009e007800e18f500004003c001e007800da
:105a20000000e000080032001a0037009e007800f5
:105a3000e28f5000120032001e007800e30f500089
:105a40001300320013003700210020000000eb009b
:105a5000a6fc07002100200040002000a3fc070056
:105a60000c00370021002000100020009ffc0700e0
:105a700021002000300020009cfc070005003700ba
:105a8000210020002000200098fc070001003700c2
:105a9000e5fd070070f9200021c0b30090cf100091
:105aa00004003e0097cfbf000040e80097efb7002a
:105ab000020037000040eb0097efb7000080fa00cb
:105ac000000006000200fa0098cfbf000080fb0033
:105ad000000f78001e007800e10f50001500320022
:105ae0009e007800e18f500004003c001e0078000a
:105af0000000e000080032001a0037009e00780025
:105b0000e28f5000120032001e007800e30f5000b8
:105b10001300320013003700210020000000eb00ca
:105b200072fc070021002000400020006ffc0700ed
:105b30000c00370021002000700020006bfc0700e3
:105b4000210020005000200068fc070005003700fd
:105b5000210020006000200064fc070001003700e5
:105b6000b1fd070080f9200021c0b30090cf1000e4
:105b700004003e0098cfbf000040e80098efb70057
:105b8000020037000040eb0098efb7000080fa00f9
:105b9000000006000400fa00000f780070002000ea
:105ba0009e0f1000030036000001eb001207980062
:105bb0000b0037001e0078000000d00062bd2000fe
:105bc000820040001e0078000000d00062be20006d
:105bd00002004000910078001080500010079800eb
:105be0001e0090000080fa00000006000400fa0089
:105bf000000f7800700020009e0f10000300360098
:105c00008000eb0011079800060037001e007800a6
:105c10000000d00061bd20000100400010007800ad
:105c2000100798001e0090000080fa000000060097
:105c30000000fa0086c0a9001fe1a80021e1a90028
:105c40000080fa00004006000000fa00200020005a
:105c5000000988000000eb00c00888001000200048
:105c6000e008880086c0a9008ec0a80021e1a80035
:105c70000080fa00000006000000fa00200020006a
:105c8000f0088800d05f8000a0088800d05f800006
:105c90000000e800d008880086a0a9001fe1a90044
:105ca0008ea0a8000080fa00000006000200fa00a2
:105cb000000f78000000eb00e05f88001e00780015
:105cc000b05f88000000eb00c05f8800eaff0700bb
